:020000040800F2
:10000000600B0020890100084F0E0008630D0008F6
:100010004D0E0008D5020008930F000800000000F4
:100020000000000000000000000000002D0F00088C
:10003000D702000800000000510E00082F0F000832
:10004000A3010008A3010008A3010008A301000800
:10005000A3010008A3010008A3010008A3010008F0
:10006000A3010008A3010008A3010008A3010008E0
:10007000A3010008A3010008A3010008A3010008D0
:10008000A3010008A3010008A3010008A3010008C0
:10009000A3010008A3010008A3010008A3010008B0
:1000A000A3010008A3010008A3010008A3010008A0
:1000B000A3010008A3010008A3010008A301000890
:1000C000A3010008A3010008A3010008A301000880
:1000D000A3010008A3010008A3010008A301000870
:1000E000A3010008A3010008A301000800F002F822
:1000F00000F03AF80AA090E8000C82448344AAF188
:100100000107DA4501D100F02FF8AFF2090EBAE885
:100110000F0013F0010F18BFFB1A43F0010318473B
:100120000C3300002C330000103A24BF78C878C18B
:10013000FAD8520724BF30C830C144BF04680C60ED
:10014000704700000023002400250026103A28BF35
:1001500078C1FBD8520728BF30C148BF0B60704739
:100160001FB51FBD10B510BD00F07AF81146FFF79E
:10017000F7FF00F03FFF00F098F803B4FFF7F2FF3D
:1001800003BC00F0A1F80000094880470948004777
:10019000FEE7FEE7FEE7FEE7FEE7FEE7FEE7FEE737
:1001A000FEE7FEE704480549054A064B7047000094
:1001B000910F0008ED00000860050020600B002092
:1001C00060070020600700204FF000020429C0F003
:1001D000128010F0030C00F01B80CCF1040CBCF179
:1001E000020F18BF00F8012BA8BF20F8022BA1EBCB
:1001F0000C0100F00DB85FEAC17C24BF00F8012BB0
:1002000000F8012B48BF00F8012B70474FF00002A7
:1002100000B5134694469646203922BFA0E80C50FC
:10022000A0E80C50B1F12001BFF4F7AF090728BFD7
:10023000A0E80C5048BF0CC05DF804EB890028BF53
:1002400040F8042B08BF704748BF20F8022B11F07C
:10025000804F18BF00F8012B7047704770477047F8
:10026000754600F02BF8AE4605006946534620F06F
:100270000700854618B020B5FFF794FFBDE8204081
:100280004FF000064FF000074FF000084FF0000B52
:1002900021F00701AC46ACE8C009ACE8C009ACE805
:1002A000C009ACE8C0098D46704710B50446AFF3ED
:1002B00000802046BDE81040FFF75FBF0048704750
:1002C000FC0400207047000001491820ABBEFEE787
:1002D00026000200FEE7704772B6FEE770B50446DE
:1002E00000F004F90546601C02D00448007804447C
:1002F00000F0FCF8401BA042FAD370BD00000020C3
:100300002DE9F84FDFF8B891002409F1040A0AF149
:10031000040B23460F270BF1040EC9E00125A5406D
:100320002A40AA427DD1674ED1F804C0ACEB060842
:10033000B44532D014DCBCF1030F3AD009DCBCF177
:10034000000F2AD0BCF1010F1CD0BCF1020F31D13B
:100350001DE0BCF1110F17D0BCF1120F2AD119E02A
:10036000B8F5881F19D006DCB8F5803F15D0B8F570
:10037000801F1FD111E0B8F5001F0ED0B8F5041F83
:1003800018D10AE0CB6815E0CB681B1D12E0CB68E2
:1003900008330FE0CB680C330CE08B682BB1012BDA
:1003A0004FF0080303D0456104E0042302E0056137
:1003B00000E00023FF2A01D8064601E000F1040610
:1003C0004FEA840501D9A5F12005D6F8008007FA87
:1003D00005FC28EA0C0803FA05F548EA0508C6F802
:1003E00000804D68ED0062D5374DAE6946F00106DC
:1003F000AE61AD6924F0030605F001050095334DAB
:1004000006EB050CDCF80850A607360F07FA06F8CD
:1004100025EA0805DFF8B880404503D14FF0000811
:1004200017E044E0DFF8AC80404502D14FF001080E
:100430000FE0DFF8A480404502D14FF0020808E049
:10044000DFF89880404502D14FF0030801E04FF0FB
:10045000040808FA06F848EA0508CCF808804D6850
:10046000D9F80060ED034D4601D5164300E09643F0
:100470002E604D68DAF80060AD03554601D516438D
:1004800000E096432E604D68DBF80060ED025D46AB
:1004900001D5164300E096432E604D68DEF80060FB
:1004A000AD02754601D5164300E096432E60641CEC
:1004B0000D682A46E5407FF431AFBDE8F88F0000B3
:1004C0000004014000001110001002400000014033
:1004D00000080140000C01400010014000140140E0
:1004E0000AB1016170470904FBE700000148806818
:1004F0007047000000000020024881680278114423
:100500008160704700000020074810B5016841F085
:1005100010010160032000F067F80F2000F006F8DA
:1005200000F024F8002010BD0020024070B50D4DF1
:1005300004464FF47A712878B1FBF0F00A49096853
:10054000B1FBF0F000F0F9FB48B9102C07D2002203
:100550002146501E00F028F800206C6070BD01207C
:1005600070BD0000000000200C0000200C4808B501
:10057000816941F001018161816901F0010100910E
:10058000C16941F08051C161C06900F080500090A4
:100590000448416821F0E06141F00071416008BD0C
:1005A0000010024000000140F0B40E4B1B680C46E6
:1005B000C3F30223C3F10705042D00D90425191D37
:1005C000072901D2002300E0DB1E012606FA05F10F
:1005D000491E214099409E40761E16403143F0BC92
:1005E00000F0D8BC0CED00E0064900F007020868F6
:1005F0004FF6FF03184040EA0220034A1043086008
:10060000704700000CED00E00000FA052DE9F0470E
:100610000F46050061D0434E306800F00700B84235
:1006200009D2306820F0070038433060306800F0AD
:100630000700B84251D128683B4C810712D54007CA
:1006400003D5606840F4E06060602878000703D557
:10065000606840F4605060606068A96820F0F00055
:10066000084360602878C00728D06868012810D047
:100670002168022810D0890700292EDA616821F04C
:10068000030101436160FFF731FF804641F2883981
:100690000DE021688903EFE78901EDE7FFF726FF09
:1006A000A0EB0801494502D90320BDE8F087606846
:1006B000696800F00C00B0EB810FEFD1306800F0FA
:1006C0000700B8420BD9306820F00700384330608B
:1006D000306800F00700B84201D00120E5E7287833
:1006E000400705D56068E96820F4E0600843606071
:1006F0002878000706D56068296920F4605040EA30
:10070000C100606000F018F86168084AC1F3031185
:10071000515CC8400649086006480068FFF706FFBC
:100720000020C2E700200240001002408C1E00089A
:100730000C0000200400002012A185B00FC98DE834
:100740000F0014A0144A006804905168134801F087
:100750000C03042B10D0082B0ED1C1F38343C90323
:100760001DF803000AD5516804AAC1F34041515C49
:100770000A4A5043B0FBF1F005B0704708494843BE
:10078000FAE7000002030405060708090A0B0C0D2E
:100790000E0F1010010200000010024000127A003B
:1007A00000093D002DE9F84F040070D02078C04DBD
:1007B000C00749D06868C0F38100012807D0686885
:1007C000C0F38100022809D16868C00306D52868F3
:1007D000800339D560680028E7D035E06068B0F55F
:1007E000803F0BD010B1B0F5A02F11D0286820F4B5
:1007F00080302860286820F4802002E0286840F4D7
:1008000080302860606890B1FFF770FE06460AE00D
:10081000286840F480202860F0E700BFFFF766FEFC
:10082000801B642873D828688003F7D50CE0FFF795
:100830005DFE064605E000BFFFF758FE801B6428FA
:10084000F0D828688003F7D420789A4E80074FF0BC
:1008500001094FF0000839D5686810F00C0F07D077
:100860006868C0F38100022809D16868C00306D413
:100870002868800714D52069012808D110E0206974
:10088000B0B1C6F80090FFF731FE074605E00AE177
:10089000FFF72CFEC01B0228C4D828688007F7D5B4
:1008A0002868616920F0F80040EAC10028600DE086
:1008B000C6F80080FFF71AFE074604E0FFF716FEB1
:1008C000C01B022823D828688007F7D420780007A7
:1008D0002CD57948A169D9B1C0F80090FFF706FE80
:1008E000074604E0FFF702FEC01B02280FD8686A23
:1008F0008007F7D571484FF4FA510068B0FBF1F06A
:10090000009000BF0098411E0091FAD20EE080E0F6
:10091000C0F80080FFF7EAFD074604E0FFF7E6FDB8
:10092000C01B022875D8686A8007F7D42078400772
:1009300060D5E8690027C00008D4E86940F080501D
:10094000E861E869012700F0805000905C48016888
:10095000C90513D40168834641F480710160FFF733
:10096000C5FD824606E000BFFFF7C0FDA0EB0A0010
:1009700064284ED8DBF80000C005F5D5E0680128F2
:100980000AD008B1052813D0286A20F00100286297
:10099000286A20F0040002E0286A40F00100286282
:1009A000E06841F2883B98B1FFF7A0FD82460BE07A
:1009B000286A40F004002862EEE700BFFFF796FDCA
:1009C000A0EB0A0159455AD8286A8007F6D50CE0F1
:1009D000FFF78CFD824605E0FFF788FDA0EB0A01DA
:1009E00059454CD8286A8007F6D41FB1E86920F031
:1009F0008050E861E06988B36968C1F38101022928
:100A000044D00228C6F8608004D0FFF76FFD04468A
:100A100038E034E0FFF76AFD074604E0FFF766FDC3
:100A2000C01B02282BD828688001F7D4206AB0F5B3
:100A3000803F05D16868A16820F4003008436860F1
:100A4000D4E908010843696821F474110843686017
:100A5000C6F86090FFF74AFD044606E025E000BFB7
:100A6000FFF744FD001B022809D828688001F7D54C
:100A70001BE000BFFFF73AFD001B022802D903204C
:100A8000BDE8F88F28688001F4D40EE00128F7D083
:100A90006868226A00F48031914204D1616A00F4EE
:100AA0007010884201D00120EAE70020E8E700004A
:100AB0000010024000004242800442420C0000202C
:100AC0000070004070B5040009D0606A002540B194
:100AD00025616561A56294F8510040B10CE00120E8
:100AE00070BD6068B0F5827FF4D0E561F2E784F80C
:100AF0005050204600F040F8022084F85100206851
:100B0000016821F040010160A088218900F4827011
:100B100001F404410843A18901F400610843217CE8
:100B200001F002010843217D01F001010843218BFE
:100B300001F400710843217F01F03801084394F863
:100B4000201001F080010843218D01F40051084379
:100B500021680860A069042101EA1040216848600A
:100B60002068C16921F40061C1616565012084F8D4
:100B70005100002070BD000000B585B0002100913B
:100B800001910291039100680F4988421AD10F48E0
:100B9000816941F480518161816901F4805104913E
:100BA000816941F0040181618069694600F00400B7
:100BB0000490A0200090022001900320039004489C
:100BC000FFF79EFB05B000BD003001400010024061
:100BD000000801402DE9F84F044690F85000002726
:100BE0001D461646894601280DD04FF0010B84F8AA
:100BF00050B0FFF77BFC804694F85100BA460128BC
:100C000004D0022793E00220BDE8F88FB9F1000F6D
:100C100073D0002E71D0032084F85100C4F854A082
:100C2000C4F83090A686E686C4F838A0A4F83CA0A4
:100C3000A4F83EA0C4F844A0C4F840A0A068B0F551
:100C4000004F09D12068016821F04001016020684F
:100C5000016841F48041016020680168490603D4BD
:100C6000016841F040010160E068B0F5006F606824
:100C700003D030B3012E24D041E008B1012E1CD1A5
:100C8000206B21680088C86006E0206881688907B9
:100C900009D5216B0988C160206B801C2063E08E20
:100CA000401EE08609E0FFF721FCA0EB0800A84207
:100CB00002D3681C01D031E07DB3E08E0028E4D17E
:100CC00020E0206B21680078087306E020688168C6
:100CD000890709D5216B09780173206B401C2063BB
:100CE000E08E401EE0860AE0FFF700FCA0EB080063
:100CF000A84203D3681C02D010E017E06DB1E08E6B
:100D00000028E3D142462946204600F0A2F808B167
:100D100020206065A06818B106E0FFE7032706E021
:100D20002068C16880680090606D00B1012784F878
:100D300051B084F850A0384666E710B5401EB0F1B7
:100D4000807F01D3012010BD4FF0E02460610F21AE
:100D5000601700F01FF90020A0610720206100202B
:100D600010BDFEE72DE9F04186B000242348009431
:100D7000019402940394816941F0200181618169A9
:100D800001F020010491816941F0040181618169D0
:100D900001F004010491816941F0080181618069D9
:100DA000174F00F008000490002210213846FFF78A
:100DB00097FBDFF85080002203214046FFF790FBAD
:100DC000012211034046FFF78BFB1020012503266B
:100DD000CDE90005CDE9024669463846FFF790FAAD
:100DE00041F20300CDE90005CDE9024669464046DF
:100DF000FFF786FA06B0BDE8F0810000001002405F
:100E000000080140000C01400F4810B50D49016079
:100E10004FF48271416000218160C1604FF4007223
:100E20000161C0E90512C1610162416281620A216A
:100E3000C162FFF747FE002803D0BDE81040FFF76E
:100E40004BBA10BD0030014010000020FEE7FEE765
:100E5000704738B50B46009204460022802100F00E
:100E600009F8002804D0606D40F020006065032080
:100E700038BD00002DE9F8431E46914688460446D9
:100E8000089DFFF733FB401B351AFFF72FFB074682
:100E900025480068C0F3CB30684338E0701C37D079
:100EA000FFF724FBC01BA84203D215B1009860B322
:100EB0002CE02068416821F0E00141606068B0F5F5
:100EC000827F0BD1A068B0F5004F02D0B0F5806FE3
:100ED00004D12068016821F040010160A06AB0F5EA
:100EE000005F09D12068016821F400510160206889
:100EF000016841F400510160012084F85100002094
:100F000084F850000320BDE8F8830025401E0090BF
:100F10002068816838EA010004D000214945BDD12C
:100F20000020F0E70121F9E70C0000207047FFF7EF
:100F3000E3BA30B58FB028216846FFF767F914216E
:100F40000AA8FFF763F901210804CDE90010002485
:100F5000029402250491CDE907504FF4E010099066
:100F60006846FFF71FFC08B172B6FEE70F20CDE917
:100F70000A054FF48060CDE90C4002210AA80E94C6
:100F8000FFF744FB002801D072B6FEE70FB030BD7A
:100F90007047FEE70907090E002804DB00F1E02096
:100FA00080F80014704700F00F0000F1E02080F896
:100FB000141D7047012211030148FFF791BA000088
:100FC000000C014000224FF480510148FFF788BA1D
:100FD000000C014010B50024FFF7F4FF6420FFF778
:100FE0007DF9FFF7E7FF6420FFF778F9641C032C15
:100FF000F2DB10BDFFF788FAFFF79BFFFFF7B2FEA9
:10100000FFF702FFFFF7E6FF00F0BEFEFEE7016814
:101010000A7C90F83810406B5143C900FFF7D4B8F0
:101020002DE9F041044690F870001F4615460E4623
:1010300030B1012809D002280CD0032815D10FE0C7
:10104000E16D20468847284408E0E16D2046884746
:10105000301A09E0E16D20468847281A85B204E07D
:10106000E16D20468847304486B22846A4F8646083
:10107000A4F8660039460025204600F035FB010043
:1010800003D0204600F060FA85B22846BDE8F08122
:101090003FB581B0044690F88C00089900283AD0FA
:1010A000BDF81000002836D0012811D9022902D03D
:1010B000032907D00CE0BDF80820101A401CADF839
:1010C000080005E0BDF80C20101A401CADF80C001B
:1010D00011F0010521D0B4F84810BDF80800814294
:1010E00019D8B4F84A10814215D9B4F84E30B4F882
:1010F0004C2004A90DF10C0000F098F900280AD04A
:101100000095206BBDF81030BDF80C208568BDF847
:1011100008102046A84705B030BDB4F84C10BDF803
:101120000C008142F7D8B4F84E108142F3D9B4F8DC
:101130004A30B4F8482004A902A8DDE72DE9FF4FA2
:1011400081B090F89270DDF838901D4688460646CA
:101150009FB10020834603984146401C80B2009016
:1011600008EB050083B23046039A00F05FF80028D0
:101170002BD001244FF0000A23E00120EAE700BF52
:1011800099F80000204202D086F8927004E096F8A8
:10119000910048B986F892B00123CDF800A04146ED
:1011A0003046039AFFF774FF08F101001FFA80F838
:1011B000600010F0FF0402D1012409F101096D1E45
:1011C000ADB2002DDCD186F8927005B0BDE8F08F8D
:1011D00030B4024C446030BC00F055B9211A00080C
:1011E0002DE9F84F8246DDE90A57D81DC0F3CC0837
:1011F000501980B21C460090081983B216468946E1
:10120000504600F013F800280ED00BE0234632467B
:10121000494650460097FFF791FF761C6D1E4744E4
:10122000B6B2ADB2002DF1D1BDE8F88F70B50D4664
:101230001E460446B0F84E10B0F84C00049B00F077
:10124000B0FA002809D0B4F84A10B4F84800334680
:101250002A46BDE8704000F0A4BA70BD10B504463F
:1012600000F02FFB2046BDE8104000F09EBB10B5FB
:101270000446806D884209D004F17400A16500F035
:10128000EBFA2046BDE8104000F054B810BD000055
:101290000149C16570470000FD1400080021A0F855
:1012A0005010A0F854104FF6FF71A0F85210A0F89B
:1012B0005610016B4968084770B50446002504982C
:1012C000A565E362616384F8382084F8395084F8B6
:1012D0006D5084F89150012184F8921084F8931095
:1012E00020630168204688472046FFF7D7FF204645
:1012F000FFF7CEFF84F8705070BD00007CB50C463F
:10130000009313460546084A084900F05EFB01A811
:1013100000F09CFA0146064B00949DF804202846F4
:10132000FFF7CAFF7CBD00004D1A0008C51B00086E
:10133000BD17000810B5816D00291AD090F98130D1
:1013400080F88E3090F9822080F88F2090F88D10F0
:1013500000290ED001290DD090F97E4090F980101F
:101360000C449C4201DD80F88E408A4201DD80F809
:101370008F1010BD90F983108B4201DA80F88E1027
:1013800090F98410F1E72BB1012B05D0022B06D088
:10139000104402E0084400E0801A80B27047401A0E
:1013A000FBE72BB1012B05D0022B06D0401A02E03F
:1013B000104400E0084480B27047801AFBE738B55B
:1013C0000446B0F856000090B4F85230B4F85420F7
:1013D000B4F850102046FFF729FF18B3012084F815
:1013E0008C00B4F84810B4F85000814201D2A4F83F
:1013F0004800B4F84A10B4F85200814201D9A4F868
:101400004A00B4F84C10B4F85400814201D2A4F858
:101410004C00B4F84E10B4F85600814201D9A4F83B
:101420004E0038BD002084F88C0038BD30B50488EB
:101430000D882544ADB2AC4205D99C4202D25D1E56
:10144000ADB200E014469C4201D2954201D8002082
:1014500030BD944200D214469D4200D91D460480FE
:10146000281B0880012030BD38B5C58F049C00942E
:10147000521BC46A92B2A04738BD38B5049C009490
:10148000FFF7F2FF38BD2DE9F0471C46914688462C
:10149000064600F021FC00254FF6FF7772682178A0
:1014A000304690470346B84225D0641CA3F57F40E0
:1014B000FE38F3D04A4641463046FFF7B1FD96F874
:1014C000701031B1012907D0022908D003290FD1AA
:1014D0000AE008EB000104E009EB000106E0A8EBDC
:1014E00000011FFA81F803E0A9EB00011FFA81F95E
:1014F000284485B2D2E72846BDE8F087002070472F
:1015000010B50C4600F006F80122641EA240801AB5
:1015100040B210BD30B50568047B2A78E2406318FC
:10152000DBB2082B09D36D1C05602D78C4F10804CB
:10153000A5401543083BEAB2DBB201248C40641E8F
:1015400014400373204630BD2DE9F843054600F1F1
:10155000600400F00CF915F96B6F2046E97BFFF78A
:10156000CFFF8146297C2046FFF7CAFF0746697CEA
:1015700020466B3DFFF7C4FF804694F90A0000281F
:1015800057DDF019404247B2237CA0883A464946CD
:10159000FFF7F9FEA080237C3A46E0884946FFF732
:1015A00000FFE080A188277C02460B4637B1012F5F
:1015B0000AD0022F40D0032F0FD146E094F90A70D1
:1015C00030443B449BB207E0891B491C94F90A70E4
:1015D0005B1C89B29BB2384480B200902846FFF76A
:1015E00025FE30B30020207284F8090095F87610AB
:1015F0002046FFF78FFF814695F877102046FFF7CA
:1016000089FF074600224946284600F027F80122B4
:101610003946284600F022F801212046FFF77AFFDC
:101620000028EFD194F90900B042DFDBA07B85F8F8
:1016300092004046BDE8F88394F90A705B1CC91B10
:10164000491C89B29BB2921B04E094F90A7033449E
:101650009BB2D21B521C92B2401CBDE72DE9F74F42
:1016600084B00D46049C94F8687094F869806034E6
:10167000A07AC01BC6B20196B54200D201954FFABE
:1016800088F279B2A088B4F806B0237C92468946E5
:10169000FFF779FE0290237C524649465846FFF7F1
:1016A00080FE0246069808B1A17B02E0607B50B93B
:1016B000E17B049880F89210207C0090DDE90131F4
:1016C0000498FFF7E5FCB54207D3A81BC5B208F1A3
:1016D0000100002700F0FF08CAE77819207284F89B
:1016E000098007B0BDE8F08F70B50D460146806DEA
:1016F0001730FF2D10D8612D02D3B1F8881003E008
:10170000412D02D3B1F886100844417819B302780C
:10171000AA42F9D1801C70BDB1F88A100C18264677
:101720000021304600F019F804440221304600F050
:1017300014F8361DA842F3D34FF6FF72207802EA60
:1017400000216078084306D0A84201D1E01C70BD9A
:10175000A0780444F2E7002070BD08444FF6FF7201
:101760000178407802EA0121084480B2704730B520
:10177000054600F1600401660020207315F8781F0B
:101780002046FFF7C7FEA07269782046FFF7C2FE29
:10179000E072A87EA07310B10020E07330BD01207C
:1017A000FBE78A4205D2834201D89A4203D901203D
:1017B00070478342F9D8002070470000F0B502F06E
:1017C00007060124B440002590F892E0E7B2DDF866
:1017D00014C02C46BEF1010F01D83D4600D03C4656
:1017E000076822F00702BCF1000F3F7C07FB02F7FD
:1017F000BAB2476B3A44114409D108785B1E2843BA
:1018000060401B0401F8010B1B0CF6D1F0BD0A78F7
:10181000761C2A436240A3F101030A7016F0070602
:101820009BB206D06A06150E6206140E002BEED18E
:10183000F0BD428F114490F89220012A03D800BFD6
:101840004FF00105F2D04FF00104EFE708210170DD
:1018500000487047FC00002070B5054608782870E5
:10186000487868708878A870C878E8700879287116
:101870004879687188790C46A871E079E871207A16
:101880002872607A6872A07AA872E07AE872207B87
:101890002873607B6873A07BA873E07BE873207C6F
:1018A000287411212046FFF758FF68821321204633
:1018B000FFF753FFA88215212046FFF74EFFE8826D
:1018C00070BD2DE9F843064690F8387090F839500D
:1018D000006800244FF6FF7890F811903168304688
:1018E0002A460B7C716B04FB03FC1FFA8CFC08EA94
:1018F000CC0C61440091002100F040F8641C6D1C88
:10190000E4B2EDB2BC4201D24D45E7D3BDE8F88365
:10191000F0B590F838204FF6FF75036805EAC2016C
:101920008187197C05EAC101418790F8394005EAB1
:10193000C401C1875E7CA718B74201D9321B92B29D
:1019400005EAC20220F8401F11444180998A818033
:10195000D98AC180F0BDFFF7DBBF0021A0F8481095
:10196000B0F84410A0F84A10B0F84010A0F84C109D
:10197000B0F84210A0F84E10FFF721BD1CB58DF84D
:1019800005108DF80620049C8DF804300094012287
:1019900084686B460F21A0471CBD30B484680023C7
:1019A000A44630BC1A460A21604730B4846800233C
:1019B000A44630BC1A461021604730B48468002326
:1019C000A4460A4630BC0B2160472DE9F04115467C
:1019D0000E460446069F00F009F86761A660C4E958
:1019E00003532046BDE8F04100F012B8002140F852
:1019F000081B064A026042608260C260C17681773D
:101A00000161FF21017780F820107047C91C000890
:101A100030B484680023A44630BC1A4609216047CC
:101A2000080001D00A2801D14FF6FF70704713B5A6
:101A30000122046901AB1721A0471CBD30B4046921
:101A40000023A4460A4630BC202160472DE9F0411E
:101A50000546A1F114001F4616460C4606281CD266
:101A6000DFE800F01203030E121200212846FFF7F0
:101A7000E5FF31462846FFF7DAFF0120BDE8F08197
:101A800001212846FFF7DAFF3B4632462146284629
:101A9000D5F810C0BDE8F04160470020EEE730B453
:101AA000C4680023A44630BC1A461921604730B4EC
:101AB000C4680023A4460A4630BC1621604730B4EF
:101AC000C4680023A4460A4630BC1521604730B4E0
:101AD000C4681346A4460A4630BC1721604700007C
:101AE000F8B50C464FEA000514F8011B182924D05C
:101AF0000EDC152919D0162917D0172923D12078E3
:101B00008DF800006A4601212846FFF7E0FF0AE051
:101B1000192912D0FE2916D122788DF8002029210A
:101B2000284600F0D3F8641CDEE722788DF8002008
:101B3000EE6800232846B047F5E70023EE681A4612
:101B40002846B047D0E7F8BD30B4C4680023A446A7
:101B500030BC1A461821604770B500234569044619
:101B60001A462821A8470023E5681A461421204672
:101B7000A84701224B21204600F0A8F8206829211F
:101B80000279204600F0A2F800224B21204600F006
:101B90009DF8206829210279204600F097F801225B
:101BA0004B21204600F092F82068292142792046F6
:101BB000BDE8704000F08AB80160897C80F822108E
:101BC0007047000070B50C46054600F019F890B952
:101BD000092C0BD00A2C01D0002070BD2846FFF73D
:101BE000BBFF06492846FFF77BFF04E00349284670
:101BF000CC31FFF7E1FF012070BD00003033000859
:101C00002DE9F0411E46144605460B2908D00D2942
:101C10000ED00E291ED00F2927D00020BDE8F0815C
:101C20001AB12849FFF75CFF4AE02649491FF9E746
:101C30004AB124490C31FFF753FF286890F813008C
:101C400085F822003CE01F49491DFFF749FF28683D
:101C5000807CF5E7FFF778FF81212846FFF72FFF0B
:101C600021462846FFF723FF27E0FFF76DFF707935
:101C700095F8221001EBC000C7B240212846FFF7BB
:101C80001EFF102040EA17112846FFF718FF07F043
:101C90000F012846FFF70BFFB07940F0B00128464E
:101CA000FFF705FF30793268C006010E2846FFF7BE
:101CB0000EFF641E14F0FF04F4D12846FFF7EFFE78
:101CC0000120ABE71D3300080020704730B44469A1
:101CD0000023A44630BC6047002180F826107047DE
:101CE00010B51846182915D004DC142912D017296C
:101CF00004D105E019290DD0202907D0002010BDFE
:101D00000146C8230448FEF765FF03E002210348AB
:101D1000FEF7E6FB012010BD10000020000C014082
:101D200010B5104628290DD0292904D0492909D0F9
:101D30004A2907D102E0FEF7D1FA03E00221024866
:101D4000FEF7CEFB012010BD000C014010B504468B
:101D5000012211460848FEF7C3FB084B084A09490F
:101D60002046FFF7CBFA2046FFF717FE2046BDE8D6
:101D700010400021FFF721BE000C0140211D00088A
:101D8000E11C00080C3300081CB53B48FFF7DEFFE0
:101D90003A4F3B4E402400253748FFF738F9A5F16C
:101DA0004000CDE9004781B2402300223248FFF7CE
:101DB00017FA3148FFF752FA6D1CC02DECDBFA2000
:101DC000FEF78CFA00252C48FFF721F9A5F1400019
:101DD000CDE9004681B2402300222748FFF700FAF0
:101DE0002548FFF73BFA6D1C302DECDBFA20FEF79F
:101DF00075FA24492048FFF73AFA23A32022482104
:101E00001D48FFF7E5F91C48FFF728FA4FF47A75EB
:101E10002846FEF763FA1CA3202254211648FFF738
:101E2000D7F91548FFF71AFA2846FEF757FA16A30E
:101E3000202260211048FFF7CBF90F48FFF70EFA78
:101E40006800FEF74BFA00250B48FFF7E0F805F1B4
:101E500010004042CDE9004681B2402300220648EE
:101E6000FFF7BEF90448FFF7F9F96D1C302DEBDBE5
:101E7000FA20FEF733FA8EE7680000209C1E000867
:101E80009C2000089C2200083F0000000000000089
:101E9000000000000102030406070809DBB66DDB41
:101EA000B66DDBB66DDBB66DDBB66DDBDAB66DDB62
:101EB000B66DDBB6B76DDBB66DDB6EDB6DDBB66DBD
:101EC000DBB6FBB7B56DDBB66DDBBDDFDEB66D5BDC
:101ED000DB76FBBF6BDBB6EDB6DBFFEFB56DDBB6DC
:101EE000ADBEEFBEDDB66DDBF6DBFBFFB76DDBB67F
:101EF000ADFFBFEFD5B66DDB76FFD6F67BDBB66DFB
:101F0000DBFEBBFDAD6DDBB6ED6FEDFADBB66DDB79
:101F1000F67F97D66DDBB66DFBB769EDDBB66DDB93
:101F2000AE7FFDFB6DDBB66DBBD6B6EADBB66DDB17
:101F3000F6BDFDDB6DDBB66DFBDFDEEEDBB66DDB2C
:101F4000D6BFF5F56DDBB66DFB7F5FD7DBB66DDB1E
:101F5000AEAFF5756DDBB66DDBFA5EFBDBB66DDB48
:101F600036FFEBFE6DEDF66DCBFD55FFDBAA5FFF97
:101F700056FFEFBF6DB5EDDD6BFFFFFDBBF57FBB22
:101F8000A77BFFB76DD3BEFFFADEF7CBDBE6FDFE26
:101F9000B7D5EF236DBFF757DDFE7BD5DBF5D10E4F
:101FA000BF55D7B36DBDE4D76DEF5ADDDBFB7B7951
:101FB000DFBADFB66DFD7FF87FD7AAFA7BFF7FB06F
:101FC000DBBD5DD7ADEFBFD87FEB567BFBFD7671F8
:101FD000DDBEBDD6AFBF5B9477EBD6BBDBFEA50005
:101FE000DDBB9B6E6FF70288B6AEEC53DBFF234080
:101FF000EFABBBBE6DDD955435D4DFA9DFFFCFAAB3
:102000005BD55B5B7FF5B766CDBFFD55EFBB2FA9F9
:10201000EB7F5F6FFFD56F687DFBFDB57AEFBDB5D8
:10202000EBEFBF5FECA9AE5AFDBFDD55A9ABDB56A8
:10203000DB6D7BEFA2966A55FFB7FDB54A5D9AAAA4
:102040006A6FB77FB7B504A8FEBBDD577DAB42AA68
:10205000FA6FF7FDFFBB2A55DDEAFD57FAAF8A900C
:10206000FA5FD7FFBFFF7E4AFBF5F9ABFFBFDFAAE0
:10207000764FF73FDFFF6EA5DAB7DE83F7FFDB5A57
:10208000B7FFBA28FDDF72AADA5A5AEA6BFF875205
:10209000F7F7B7BABDB78AAB5DFDFFDF0000000000
:1020A0000000000000000000000000000000000030
:1020B0000000000000000000000000000000000020
:1020C0000000000000000000000000000000000010
:1020D0000000000000000000000000000000000000
:1020E00000000000000000000000000000000000F0
:1020F00000000000000000000000000000000000E0
:1021000000000000000000000000000000000000CF
:1021100000000000000000000000000000000000BF
:1021200000000000000000000000000000000000AF
:10213000000000000000000000000000000000009F
:10214000000000000000000000000000000000008F
:102150002000000000000000300000000007000028
:102160001C000000000E00007E000000003FFFFF8A
:102170006F00000000F9FFFF6700000000F1FFFFA3
:102180006700000000F3FFFF3700000000E7FFFFDB
:102190003F00000000FEFFFF3F00000000FEF18F47
:1021A0001F00000000FCE18F1F00000000FCFFFB8F
:1021B0003F00000000FC7FF83F00000000FE7FF0C1
:1021C0003F00000000FF7FF07F00000000FFFFF0F5
:1021D0007F00000000FF7FA07F00000000FF018063
:1021E0003F00000000FF01001F00000000FF03800F
:1021F0001F00000000FF07C01F00000000FFCFC548
:102200001F00000000FF9FEF0F00000000FF9FF085
:102210000700000000FF7FF00300000000FCFFF853
:102220000100000000ECFFFF0000000000C4FF7F81
:10223000000000008006FF1F00000000801F00005B
:1022400000000000807F000000000000807F000090
:1022500001000000803F013C01000000C07F000041
:1022600002000000C0FFFF0003000000E0FFFF00CD
:1022700007000000E0FFFFE707000000E0FF7FF03D
:1022800007000000E0FFE3000F000000E0FF838391
:102290000E000000E00700000E000000BF02040274
:1022A00004050103050A1400FC0DFC0D00027C0569
:1022B00047105120084A433FFFAF00210D4A433FDA
:1022C00091D07F8F11EAC901220F4A433F8991447F
:1022D000245145F2FC3500231D4A433FB942A55025
:1022E0002934838146A152A8149AC140A35029548D
:1022F0000A3D4300241D4A433F916CB05198285435
:102300000A9542369829540A9542A2B019CCF4E4B1
:1023100000251A4A433FF1C4C24431082D74429D3E
:1023200050A7180D12128589644F0B261E4A433F91
:10233000CD4CA152A814AA414E3753A8240A9B8918
:1023400046B3186406113D2900270B4A433F91D03C
:10235000619EBF02280F4A433F99CE5027F452A8EE
:10236000B42706290F4A433F89D25029F44EA8B317
:1023700067012A144A433F274612D520341888069D
:10238000298948A2E7182B0E4A433F4742ABC14078
:1023900025B4E71C2C0B4A433FFF7237DB13012D9A
:1023A0000B4A433F5F0C067ABE052E0A4A433F7F25
:1023B000BEBBA7062F124A433F13A14EA813EA84BF
:1023C0003AA14EA86701301D4A433F916E90928812
:1023D000241A9144241149441291462292A80639A4
:1023E0003D390031114A433F916E36482984FED56C
:1023F00060A0A70532174A433FCD2025D18824226B
:10240000A19D6CA633140E067A5A0033194A433F35
:10241000CD2025D1882422A14EB6341149441A89F1
:102420006A90A70634154A433F5D50371BA4142217
:1024300089C69BC14027744F0C35164A433FC5607F
:1024400020117A319A288526228D4435C8530336C7
:102450001C4A433FCD2025D18832428BD144239260
:10246000882422894823510DF2D40037144A433F6F
:10247000C56020B413EA843AA14EA813EA59003883
:102480001E4A433FCD2025D1882422894823510D5F
:1024900052128D482292883412D5204F0D391C4A91
:1024A000433FCD2025D1882422894822D248460B9B
:1024B000A14D4823510DF2D4003A0D4A433F2F77E6
:1024C0007B26BB3D35003B0D4A433F2F777B26BB28
:1024D000D99E083C0D4A433F5D50E74B5FE68901BA
:1024E0003D0E4A433FB783819E7830D0730B3E0C3C
:1024F0004A433F49D2EF7C9867023F154A433FCD9C
:102500002025D18824228948E7D01E23D493034074
:10251000204A433FCD2025D1882492414431902840
:102520004C14260A13C52023112935A2819E184177
:102530001E4A433F916E909288241A914424114977
:1025400006038948229288242289484F0B421A4A5E
:10255000433FC540251169FC443418698C24228905
:1025600048A2D10CF6D40043144A433FCD2025D1D4
:102570008824427FA491A806796A00441E4A433FFA
:10258000C560A43192882422894822928824228915
:102590004822926834833D350045134A433FC56065
:1025A00020117A3818093D1C0CF4B40046104A4337
:1025B0003FC56020117A3818097DCF04471C4A4373
:1025C0003FCD2025D1882442278388482292882421
:1025D000228D643448E46901481F4A433F854822FC
:1025E00092882422894822920C061291442411498F
:1025F00044129144A4A70549104A433FC560A01264
:10260000FA5F0D067A5A004A104A433FD16026F419
:10261000371E29647B72004B1A4A433F8548229239
:10262000683C1149440395442411693C9288F4B4F0
:10263000004C0D4A433F85D0FFE160A0A7054D1D2A
:102640004A433F85482292FC60205198284C14262A
:102650000A139144241149447A5A004E214A433FB7
:102660008548B2916C2483886410B1305198480633
:1026700011C920A29968262289484F0B4F1E4A4350
:102680003FCD2025D188242289482292882422897E
:10269000482292883412D5204F0D50174A433FC527
:1026A00060A431928824228948A2D10C4642EF9935
:1026B0000051204A433FCD2025D188242289482239
:1026C000928824228948A230910C3212D540A9A7C1
:1026D00000521B4A433FC560A43192882422894896
:1026E000A2D10C461291C62389484F0B53184A4376
:1026F0003FCD2025D1882442A5729034948834128D
:10270000D5204F0D540D4A433FC560A012FABF2794
:1027100007551E4A433F8548229288242289482231
:102720009288242289482292883412D5204F0D564F
:102730001B4A433F854822928824228D4424114914
:102740005483D82036C809EDC901571D4A433F8537
:102750004822928824228948A2305198284C142675
:102760009F8824223D2D00581D4A433F854822D290
:10277000484412D52036C8E906B1414A229268443D
:1027800012919E1659144A433F854822D24844125A
:10279000D52036C809FD9E1C5A134A433FC5602008
:1027A000B433D419EA0C8583819E165B0E4A433FED
:1027B000C96024F43F1CEC89015C124A433FB150CC
:1027C00029540A9542A55029D4D3025D0D4A433FAE
:1027D000C960E8FF68B027065E0E4A433F916E90DD
:1027E0009268447AFE165F0A4A433FFFEDE09E007E
:1027F000600A4A433F8DD29E7F0861174A433F0FCC
:1028000007228D5033184444129144A41928F2B47D
:102810000062174A433F85D017A3894624114944D3
:10282000129164A251ECA90163114A433F0F0722A0
:102830008D44E852231AE8890164184A433F9DD029
:10284000A3854632114944129144A4918C167A5AB8
:102850000065154A433F0F0729894624190C244275
:10286000A54634D0130366124A433FD120251149AF
:102870004442D96026F47B0667194A433FEF068A33
:102880008866A2F1D140A41C6C44129144A4194C56
:102890000068174A433F85D017A38946241149444D
:1028A0001291442411E9690169104A433F4BA11E6A
:1028B0003108FAD560A0A7056A104A433F63A11EFC
:1028C0003108FA1B3F1A48006B154A433F85D03741
:1028D0002622856A101BA824228D919E166C0E4A12
:1028E000433FC920E8FF6A30D0D3026D184A433F06
:1028F000CF123683814461A2305198284C14260AA5
:102900007B5A006E164A433FCF14A38946241149CF
:10291000441291442411E969016F164A433F0F079D
:1029200029894624114944129146A21AE4A901704A
:10293000174A433FCF14A389462411494412916496
:10294000A2518C84EE0071164A433F0F171AC944F6
:1029500024114944129146325A08BD00720F4A436D
:102960003FCF1483D04423F43D0B0073134A433FFD
:10297000EF061B914439580A2522CD604F0C740F85
:102980004A433F43678399D027AA419E1875164A48
:10299000433FCF4412914424114944129146325A84
:1029A000E8690176144A433FCF441291462292A827
:1029B00006B1414EA8270777174A433FCF441291EB
:1029C00044245198284C1426838146A22706781463
:1029D0004A433FCF441A896A9013EA06298946A4DC
:1029E000A705791B4A433FCF44129144241149441F
:1029F000129146325A0825228D4435C8007A0F4A72
:102A0000433FEF0683A0CE8783419E167B114A4346
:102A10003FD52025F46A90147A39C8D3027C0B4A3A
:102A2000433F91D0FF7B72007D104A433FC5202970
:102A3000F47290127A35C8337E0D4A433FC9C4C23E
:102A400044B2E7DF01A0084A433FFFAF00A10D4AAF
:102A5000433F91508F11FAEFC901A2174A433FB982
:102A60005037484934A28CD02824510D72423D3948
:102A700000A3184A433FF9202511494442D9602652
:102A8000341BA812098BC99E16A4174A433F07B9E5
:102A9000846221190C327E331844140B452ECF0C5E
:102AA000A5144A433FB3129146A21AA40633D96033
:102AB00026744F0EA60C4A433F91D07B42DF93030E
:102AC000A71B4A433FCD2025D118090729894AA2CF
:102AD00092A8064191C64435C85303A80B4A433F08
:102AE000899144CF7F02A9234A433FC3414AA2119F
:102AF000491283442411494412A148229288240691
:102B000089884823510DF2D400AA184A433FCD408A
:102B100014126A0683884822D20C14E1C140CF33D4
:102B200000AB1B4A433FD3484A21528814228548B0
:102B30002153C81432854C218BE46901AC0F4A4300
:102B40003FCF0603C96020B4E71900AD0A4A433FEE
:102B50009F0CF67C0CAE224A433FC3414AA2114966
:102B60001283442411494412834424515291504405
:102B7000441A896A90A706AF0B4A433F6C30D0F3E2
:102B80003F03B0114A433F916E90928824AA414E70
:102B9000CF2F01B1114A433FE742D560A012EA01AD
:102BA000077A2E00B20E4A433FCD4C21D4391CE89F
:102BB000F91AB3104A433FCD4C21D429550AD99E66
:102BC000CF01B40A4A433F95CE9E7F0AB5114A43CE
:102BD0003F5F68FC378BCD409111DA4300B6244A41
:102BE000433FC96010190C24038564A0900C149A0B
:102BF0004142A55029540A9542A55029540A3D2D19
:102C000000B70A4A433F2F77F77C03B80C4A433F8B
:102C1000FFB952A5908D00B90D4A433F8D6EE8DD96
:102C200020CFE700BA124A433FCD4C21D2F84821C9
:102C3000DB030EF2BC03BB1A4A433FB3484C21539B
:102C4000C81432854C21528814228548A18AE4197F
:102C5000BC194A433F495099CA84329360492A2299
:102C60008A24329141B29E1D00BD194A433F49500A
:102C700099CA84329360852A11C9A422A9607090F0
:102C80006706BE194A433FC534274A453293604917
:102C90002A228A2432918130996707BF154A433F1F
:102CA00091508F11DA39928824228D4435C853030C
:102CB000C01D4A43B3D21EA31BA4241A914424115D
:102CC000490603894822928824223D2D00C11D4ACD
:102CD000433F42678FD10D52128D48229288248340
:102CE00081442411494412919E16C21F4A43BB6E6F
:102CF0009092E811BA414AA211494412916430906D
:102D0000882422894822D2D302C3204A43B72434DC
:102D10001845F410DD2025D188242289483218482E
:102D2000441291442411E96901C4204A43B3442464
:102D3000D1237483944424D18824228948321848AA
:102D4000441291442411E96901C5224A43CF202548
:102D5000114954833C443748493422894822920C13
:102D600006129144241149447A5A00C61F4A433F2F
:102D7000D140344829540A914424110D0612238964
:102D8000482292882422C9204F0BC7174A433FCDBF
:102D90002025D18824427FA491A80639A54A211B69
:102DA00001C8144A43B3D21E7020113A1C8C840E01
:102DB00007033D2D00C9154A433F40678F180C2477
:102DC00042878391D0E160A0A705CA164A43BB6E33
:102DD0009092A8070389D0E16024743818E869014B
:102DE000CB164A43B34424D103070389D0E16024BE
:102DF000743818E86901CC0F4A43B7D21E7026F424
:102E0000CF067B6200CD104A433F40670F19CC8448
:102E1000FED9604F0CCE114A43BB6E9092C8073367
:102E2000A17F36D81303CF104A43B34424910F66D1
:102E300042FFD9604F0CD01E4A433FC560A4319277
:102E40008824228948319018494412914424D16839
:102E5000067B6A00D1224A43B724341845E422C9CC
:102E60004632884806110B1385896410910C229A0A
:102E7000894822D2D302D21D4A43B7D21E314849D3
:102E8000342289482292882422894822D2485483B5
:102E90003C3500D31D4A433F40678F19A4241A9143
:102EA000442411494412914424116924AA419E1AD0
:102EB000D41F4A43BB6E9092E801839444239288C6
:102EC0002422894822928824228D4435C85303D570
:102ED000204A43B724341845F488414AA211494492
:102EE00012914424114944129146A21AE4A901D630
:102EF000204A43B34424D103062989462411494476
:102F000012914424114944129146A21AE4A901D70E
:102F1000134A433FCF521923856C375388349A5450
:102F20009E18D8234A433F3A341049349A8966227E
:102F30004948240989242151442C221611C9C64428
:102F40003410E50901D91C4A43B7D25C2411494425
:102F500012914424114944129144A491A806796A1B
:102F600000DA1D4A433F40678F10494412914424C0
:102F700011494412914424116924AA419E1ADB1E6E
:102F80004A43BB6E9092A8451291442411494412C1
:102F90009144241149441A896A90A706DC1F4A43C8
:102FA000B34424518B2422894822928824228948C0
:102FB00022928824228D4435C85303DD174A433FAB
:102FC00040678F1049441A8948A21AC40639A1F7EC
:102FD000E400DE124A433F89D07030D2F86F0623F6
:102FE000A13D0B00DF174A433FD14C21D278A259B3
:102FF000A8142A8948E32722859E1AE0184A433FED
:10300000B5D21E7023126A06838848229288340340
:10301000459E16E1194A433F039D3D64B0110935B1
:10302000834144241149449A81224F0BE21B4A43B5
:103030003FB96E9092C8071B9150331844441291C7
:1030400044A41928F2B400E31C4A433FB5243418C1
:1030500045F4801B915033184444129144A419281C
:10306000F2B400E41A4A433F3B8948221F6C4442B1
:10307000CD6010114944129166A0C8D302E51E4AE2
:10308000433FCD2025114954833CE04624D40C060F
:10309000119144241169068A3C2D00E6184A433FE9
:1030A000EF169A8842A5500D42839442A59064146D
:1030B0007B6200E7144A433F0F07228D44E8522306
:1030C0001AC8942A856C04E8174A433FB1D21E32CD
:1030D00048493422C96020112A35A2819E18E91876
:1030E0004A433F0B9D3D649092684492C1402254F4
:1030F0006A44033D3100EA1A4A433FB96E9092E8B0
:103100000183944423920C0612A152231AE88901E8
:10311000EB194A433F3B8948A2070C52128D4832B3
:103120001848844A8D68A02706EC104A433FB1D264
:103130001E3108FAD560A0A705ED104A433F039D54
:103140003D6410F4ABC1404F0BEE124A433FB96EE1
:103150009092C80741BF1A0CF4B400EF114A433FE4
:103160003B8948221F04FD6A30D0D302F01D4A4338
:103170003F4526A590ED660A554636104926228918
:103180004822D24854833C3500F11B4A433FB524C2
:10319000341845E48AD14423928824228948229213
:1031A00088F4B400F2184A433FB1D21E3248493481
:1031B0002289482292883412D5204F0DF3184A43B1
:1031C0003F0B9D3D64909268441291442411692400
:1031D000AA419E1AF41B4A433FB96E9092E80183BC
:1031E00094442392882422894823510DF2D400F577
:1031F0001C4A433FB524341845F488414AA211497A
:1032000044129144A491A806796A00F61A4A433FF1
:103210003B8948A2070C52128D4822928824228DA5
:103220004435C85303F7124A433F4BA11E3A18488E
:1032300006033D54A86709F81A4A433F6F420391B9
:1032400044234948240989226211D1484403519EEC
:1032500010F9174A433FB5D25C24114944129144F6
:1032600024116924A3859E16FA184A433F0B9D3DFD
:10327000402411494412914424116924A3859E16C7
:10328000FB1A4A433FB96E9092A84512914424110B
:103290004944129146325AE86901FC194A433F3BBE
:1032A0008948A2164944129144241149441AC96814
:1032B000A1A705FD1E4A433F039D3D4224114944F9
:1032C00012914424116924A3855022D24854830CBE
:1032D00000FE134A433F89D087039544A4F113D1DC
:1032E00040257406FF1E4A433F3B8948A2164944C5
:1032F000129144241149441AC9682194883412D582
:10330000200300000004FFFF000000005719000820
:103310005B1900087B1400081815AF19FF1815AECB
:1033200019FF1815A115C819FF1815A015C019FF08
:103330001815AE15D5168015A8163F15D31600150D
:1033400040158D16141520160015A115C815DA168E
:1033500012158116CF15D916F115DB1640152E154D
:10336000A415A619FF1815AE15D5168015A8163F79
:1033700015D316001540158D16141520160015A12D
:1033800015C815DA1612158116EF15D916A115DB19
:103390001600152E15A415A619FF1815AE15D5166D
:1033A0008015A8163F15D316001540158D16141557
:1033B00020160015A115C815DA1602158116CF15AD
:1033C000D916F115DB1640152E15A415A619FF18F0
:1033D00015AE15A415D5165015A8163F15D3160011
:1033E000154015AD168B15D9162215DB163515327D
:1033F000158116FF15A615DA161219FF0001140A19
:103400006464323200127A0000042896100800002A
:10341000800040000001140A6464323200093D005B
:103420000304289610080202800040004C34000873
:103430000000002010000000280100085C34000893
:1034400010000020500B00004401000801000000A3
:0C34500010000000000000000024F40048
:04000005080000ED02
:00000001FF
