Component: ARM Compiler 5.06 update 6 (build 750) Tool: armlink [4d35ed]

==============================================================================

Section Cross References

    startup_stm32f103xb.o(STACK) refers (Special) to heapauxi.o(.text) for __use_two_region_memory
    startup_stm32f103xb.o(HEAP) refers (Special) to heapauxi.o(.text) for __use_two_region_memory
    startup_stm32f103xb.o(RESET) refers (Special) to heapauxi.o(.text) for __use_two_region_memory
    startup_stm32f103xb.o(RESET) refers to startup_stm32f103xb.o(STACK) for __initial_sp
    startup_stm32f103xb.o(RESET) refers to startup_stm32f103xb.o(.text) for Reset_Handler
    startup_stm32f103xb.o(RESET) refers to stm32f1xx_it.o(i.NMI_Handler) for NMI_Handler
    startup_stm32f103xb.o(RESET) refers to stm32f1xx_it.o(i.HardFault_Handler) for HardFault_Handler
    startup_stm32f103xb.o(RESET) refers to stm32f1xx_it.o(i.MemManage_Handler) for MemManage_Handler
    startup_stm32f103xb.o(RESET) refers to stm32f1xx_it.o(i.BusFault_Handler) for BusFault_Handler
    startup_stm32f103xb.o(RESET) refers to stm32f1xx_it.o(i.UsageFault_Handler) for UsageFault_Handler
    startup_stm32f103xb.o(RESET) refers to stm32f1xx_it.o(i.SVC_Handler) for SVC_Handler
    startup_stm32f103xb.o(RESET) refers to stm32f1xx_it.o(i.DebugMon_Handler) for DebugMon_Handler
    startup_stm32f103xb.o(RESET) refers to stm32f1xx_it.o(i.PendSV_Handler) for PendSV_Handler
    startup_stm32f103xb.o(RESET) refers to stm32f1xx_it.o(i.SysTick_Handler) for SysTick_Handler
    startup_stm32f103xb.o(.text) refers (Special) to heapauxi.o(.text) for __use_two_region_memory
    startup_stm32f103xb.o(.text) refers to system_stm32f1xx.o(i.SystemInit) for SystemInit
    startup_stm32f103xb.o(.text) refers to __main.o(!!!main) for __main
    startup_stm32f103xb.o(.text) refers to startup_stm32f103xb.o(HEAP) for Heap_Mem
==============================================================================

Removing Unused input sections from the image.

    Removing main.o(.rev16_text), (4 bytes).
    Removing main.o(.revsh_text), (4 bytes).
    Removing main.o(.rrx_text), (6 bytes).
    Removing gpio.o(.rev16_text), (4 bytes).
    Removing gpio.o(.revsh_text), (4 bytes).
    Removing gpio.o(.rrx_text), (6 bytes).
    Removing spi.o(.rev16_text), (4 bytes).
    Removing spi.o(.revsh_text), (4 bytes).
    Removing spi.o(.rrx_text), (6 bytes).
    Removing spi.o(i.HAL_SPI_MspDeInit), (40 bytes).
    Removing stm32f1xx_it.o(.rev16_text), (4 bytes).
    Removing stm32f1xx_it.o(.revsh_text), (4 bytes).
    Removing stm32f1xx_it.o(.rrx_text), (6 bytes).
    Removing stm32f1xx_hal_msp.o(.rev16_text), (4 bytes).
    Removing stm32f1xx_hal_msp.o(.revsh_text), (4 bytes).
    Removing stm32f1xx_hal_msp.o(.rrx_text), (6 bytes).
    Removing stm32f1xx_hal_gpio_ex.o(.rev16_text), (4 bytes).
    Removing stm32f1xx_hal_gpio_ex.o(.revsh_text), (4 bytes).
==============================================================================

Image Symbol Table

    Local Symbols

    Symbol Name                              Value     Ov Type        Size  Object(Section)

    ../Core/Src/gpio.c                       0x00000000   Number         0  gpio.o ABSOLUTE
    ../Core/Src/main.c                       0x00000000   Number         0  main.o ABSOLUTE
    ../Core/Src/spi.c                        0x00000000   Number         0  spi.o ABSOLUTE
    ../Core/Src/stm32f1xx_hal_msp.c          0x00000000   Number         0  stm32f1xx_hal_msp.o ABSOLUTE
    ../Core/Src/stm32f1xx_it.c               0x00000000   Number         0  stm32f1xx_it.o ABSOLUTE
    ../Core/Src/system_stm32f1xx.c           0x00000000   Number         0  system_stm32f1xx.o ABSOLUTE
    ../Drivers/STM32F1xx_HAL_Driver/Src/stm32f1xx_hal.c 0x00000000   Number         0  stm32f1xx_hal.o ABSOLUTE
    ../Drivers/STM32F1xx_HAL_Driver/Src/stm32f1xx_hal_cortex.c 0x00000000   Number         0  stm32f1xx_hal_cortex.o ABSOLUTE
    ../Drivers/STM32F1xx_HAL_Driver/Src/stm32f1xx_hal_dma.c 0x00000000   Number         0  stm32f1xx_hal_dma.o ABSOLUTE
    ../Drivers/STM32F1xx_HAL_Driver/Src/stm32f1xx_hal_exti.c 0x00000000   Number         0  stm32f1xx_hal_exti.o ABSOLUTE
    ../Drivers/STM32F1xx_HAL_Driver/Src/stm32f1xx_hal_flash.c 0x00000000   Number         0  stm32f1xx_hal_flash.o ABSOLUTE
    ../Drivers/STM32F1xx_HAL_Driver/Src/stm32f1xx_hal_flash_ex.c 0x00000000   Number         0  stm32f1xx_hal_flash_ex.o ABSOLUTE
    ../Drivers/STM32F1xx_HAL_Driver/Src/stm32f1xx_hal_gpio.c 0x00000000   Number         0  stm32f1xx_hal_gpio.o ABSOLUTE
    ../Drivers/STM32F1xx_HAL_Driver/Src/stm32f1xx_hal_gpio_ex.c 0x00000000   Number         0  stm32f1xx_hal_gpio_ex.o ABSOLUTE
    ../Drivers/STM32F1xx_HAL_Driver/Src/stm32f1xx_hal_pwr.c 0x00000000   Number         0  stm32f1xx_hal_pwr.o ABSOLUTE
    ../Drivers/STM32F1xx_HAL_Driver/Src/stm32f1xx_hal_rcc.c 0x00000000   Number         0  stm32f1xx_hal_rcc.o ABSOLUTE
    ../Drivers/STM32F1xx_HAL_Driver/Src/stm32f1xx_hal_rcc_ex.c 0x00000000   Number         0  stm32f1xx_hal_rcc_ex.o ABSOLUTE
    ../Drivers/STM32F1xx_HAL_Driver/Src/stm32f1xx_hal_spi.c 0x00000000   Number         0  stm32f1xx_hal_spi.o ABSOLUTE
    ../Drivers/STM32F1xx_HAL_Driver/Src/stm32f1xx_hal_tim.c 0x00000000   Number         0  stm32f1xx_hal_tim.o ABSOLUTE
    ../Drivers/STM32F1xx_HAL_Driver/Src/stm32f1xx_hal_tim_ex.c 0x00000000   Number         0  stm32f1xx_hal_tim_ex.o ABSOLUTE
    ../clib/angel/boardlib.s                 0x00000000   Number         0  boardshut.o ABSOLUTE
    ../clib/angel/boardlib.s                 0x00000000   Number         0  boardinit1.o ABSOLUTE
    ../clib/angel/boardlib.s                 0x00000000   Number         0  boardinit2.o ABSOLUTE
    ../clib/angel/boardlib.s                 0x00000000   Number         0  boardinit3.o ABSOLUTE
    ../clib/angel/handlers.s                 0x00000000   Number         0  __scatter_copy.o ABSOLUTE
    ../clib/angel/handlers.s                 0x00000000   Number         0  __scatter_zi.o ABSOLUTE
    ../clib/angel/kernel.s                   0x00000000   Number         0  rtexit2.o ABSOLUTE
    ../clib/angel/kernel.s                   0x00000000   Number         0  __rtentry.o ABSOLUTE
    ../clib/angel/kernel.s                   0x00000000   Number         0  rtexit.o ABSOLUTE
    ../clib/angel/kernel.s                   0x00000000   Number         0  __rtentry4.o ABSOLUTE
    ../clib/angel/kernel.s                   0x00000000   Number         0  __rtentry2.o ABSOLUTE
    ../clib/angel/rt.s                       0x00000000   Number         0  rt_errno_addr.o ABSOLUTE
    ../clib/angel/rt.s                       0x00000000   Number         0  rt_errno_addr_intlibspace.o ABSOLUTE
    ../clib/angel/rt.s                       0x00000000   Number         0  rt_heap_descriptor_intlibspace.o ABSOLUTE
    ../clib/angel/rt.s                       0x00000000   Number         0  rt_raise.o ABSOLUTE
    ../clib/angel/rt.s                       0x00000000   Number         0  rt_heap_descriptor.o ABSOLUTE
    ../clib/angel/scatter.s                  0x00000000   Number         0  __scatter.o ABSOLUTE
    ../clib/angel/startup.s                  0x00000000   Number         0  __main.o ABSOLUTE
    ../clib/angel/sys.s                      0x00000000   Number         0  libspace.o ABSOLUTE
    ../clib/angel/sys.s                      0x00000000   Number         0  use_no_semi.o ABSOLUTE
    ../clib/angel/sys.s                      0x00000000   Number         0  indicate_semi.o ABSOLUTE
    ../clib/angel/sys.s                      0x00000000   Number         0  sys_stackheap_outer.o ABSOLUTE
    ../clib/angel/sys.s                      0x00000000   Number         0  mutex_dummy.o ABSOLUTE
    ../clib/angel/sysapp.c                   0x00000000   Number         0  sys_exit.o ABSOLUTE
    ../clib/angel/sysapp.c                   0x00000000   Number         0  sys_command.o ABSOLUTE
    ../clib/angel/sysapp.c                   0x00000000   Number         0  sys_wrch.o ABSOLUTE
    ../clib/angel/sysapp.c                   0x00000000   Number         0  sys_io.o ABSOLUTE
    ../clib/armsys.c                         0x00000000   Number         0  argv_veneer.o ABSOLUTE
    ../clib/armsys.c                         0x00000000   Number         0  argv_veneer.o ABSOLUTE
    ../clib/armsys.c                         0x00000000   Number         0  no_argv.o ABSOLUTE
    ../clib/armsys.c                         0x00000000   Number         0  _get_argv_nomalloc.o ABSOLUTE
    ../clib/armsys.c                         0x00000000   Number         0  _get_argv.o ABSOLUTE
    ../clib/assert.c                         0x00000000   Number         0  assert_stdio.o ABSOLUTE
    ../clib/heap1.c                          0x00000000   Number         0  h1_extend_mt.o ABSOLUTE
    ../clib/heap1.c                          0x00000000   Number         0  h1_init.o ABSOLUTE
    ../clib/heap1.c                          0x00000000   Number         0  h1_free_mt.o ABSOLUTE
    ../clib/heap1.c                          0x00000000   Number         0  h1_final_mt.o ABSOLUTE
    ../clib/heap1.c                          0x00000000   Number         0  h1_extend.o ABSOLUTE
    ../clib/heap1.c                          0x00000000   Number         0  h1_free.o ABSOLUTE
    ../clib/heap1.c                          0x00000000   Number         0  h1_alloc_mt.o ABSOLUTE
    ../clib/heap1.c                          0x00000000   Number         0  h1_alloc.o ABSOLUTE
    ../clib/heap1.c                          0x00000000   Number         0  h1_init_mt.o ABSOLUTE
    ../clib/heap1.c                          0x00000000   Number         0  h1_final.o ABSOLUTE
    ../clib/heap2.c                          0x00000000   Number         0  fdtree.o ABSOLUTE
    ../clib/heap2.c                          0x00000000   Number         0  heap2.o ABSOLUTE
    ../clib/heap2.c                          0x00000000   Number         0  heap2mt.o ABSOLUTE
    ../clib/heapalloc.c                      0x00000000   Number         0  heapstubs.o ABSOLUTE
    ../clib/heapalloc.c                      0x00000000   Number         0  term_alloc.o ABSOLUTE
    ../clib/heapalloc.c                      0x00000000   Number         0  malloc.o ABSOLUTE
    ../clib/heapalloc.c                      0x00000000   Number         0  hguard.o ABSOLUTE
    ../clib/heapalloc.c                      0x00000000   Number         0  free.o ABSOLUTE
    ../clib/heapalloc.c                      0x00000000   Number         0  maybetermalloc2.o ABSOLUTE
    ../clib/heapalloc.c                      0x00000000   Number         0  maybetermalloc2.o ABSOLUTE
    ../clib/heapalloc.c                      0x00000000   Number         0  maybetermalloc1.o ABSOLUTE
    ../clib/heapalloc.c                      0x00000000   Number         0  maybetermalloc1.o ABSOLUTE
    ../clib/heapalloc.c                      0x00000000   Number         0  hrguard.o ABSOLUTE
    ../clib/heapalloc.c                      0x00000000   Number         0  init_alloc.o ABSOLUTE
    ../clib/heapaux.c                        0x00000000   Number         0  heapauxi.o ABSOLUTE
    ../clib/heapaux.c                        0x00000000   Number         0  heapauxa.o ABSOLUTE
    ../clib/libinit.s                        0x00000000   Number         0  libshutdown2.o ABSOLUTE
    ../clib/libinit.s                        0x00000000   Number         0  libinit.o ABSOLUTE
    ../clib/libinit.s                        0x00000000   Number         0  libinit2.o ABSOLUTE
    ../clib/libinit.s                        0x00000000   Number         0  libshutdown.o ABSOLUTE
    ../clib/longlong.s                       0x00000000   Number         0  llushr.o ABSOLUTE
    ../clib/memcpset.s                       0x00000000   Number         0  rt_memcpy_w.o ABSOLUTE
    ../clib/memcpset.s                       0x00000000   Number         0  rt_memclr.o ABSOLUTE
    ../clib/memcpset.s                       0x00000000   Number         0  rt_memclr_w.o ABSOLUTE
    ../clib/memcpset.s                       0x00000000   Number         0  rt_memcpy_v6.o ABSOLUTE
    ../clib/printf.c                         0x00000000   Number         0  __2printf.o ABSOLUTE
    ../clib/printf.c                         0x00000000   Number         0  _printf_char_file.o ABSOLUTE
    ../clib/printf.c                         0x00000000   Number         0  __printf_nopercent.o ABSOLUTE
    ../clib/printf.c                         0x00000000   Number         0  _printf_char_common.o ABSOLUTE
    ../clib/printf.c                         0x00000000   Number         0  _printf_char_file_locked.o ABSOLUTE
    ../clib/printf.c                         0x00000000   Number         0  noretval__2printf.o ABSOLUTE
    ../clib/signal.c                         0x00000000   Number         0  defsig_other.o ABSOLUTE
    ../clib/signal.c                         0x00000000   Number         0  defsig_exit.o ABSOLUTE
    ../clib/signal.c                         0x00000000   Number         0  defsig_stak_inner.o ABSOLUTE
    ../clib/signal.c                         0x00000000   Number         0  defsig_rtmem_formal.o ABSOLUTE
    ../clib/signal.c                         0x00000000   Number         0  defsig_general.o ABSOLUTE
    ../clib/signal.c                         0x00000000   Number         0  __raise.o ABSOLUTE
    ../clib/signal.c                         0x00000000   Number         0  defsig_abrt_inner.o ABSOLUTE
    ../clib/signal.c                         0x00000000   Number         0  defsig_segv_inner.o ABSOLUTE
    ../clib/signal.c                         0x00000000   Number         0  defsig_fpe_inner.o ABSOLUTE
    ../clib/signal.c                         0x00000000   Number         0  defsig_cppl_inner.o ABSOLUTE
    ../clib/signal.c                         0x00000000   Number         0  defsig_rtred_outer.o ABSOLUTE
    ../clib/signal.c                         0x00000000   Number         0  defsig_rtmem_inner.o ABSOLUTE
    ../clib/signal.c                         0x00000000   Number         0  defsig_rtred_formal.o ABSOLUTE
    ../clib/signal.c                         0x00000000   Number         0  defsig_pvfn_inner.o ABSOLUTE
    ../clib/signal.c                         0x00000000   Number         0  defsig_rtmem_outer.o ABSOLUTE
    ../clib/signal.c                         0x00000000   Number         0  defsig_rtred_inner.o ABSOLUTE
    ../clib/signal.s                         0x00000000   Number         0  defsig.o ABSOLUTE
    ../clib/stdio.c                          0x00000000   Number         0  initio.o ABSOLUTE
    ../clib/stdio.c                          0x00000000   Number         0  fputc.o ABSOLUTE
    ../clib/stdio.c                          0x00000000   Number         0  ferror.o ABSOLUTE
    ../clib/stdio.c                          0x00000000   Number         0  stdio_streams.o ABSOLUTE
    ../clib/stdio.c                          0x00000000   Number         0  fputs.o ABSOLUTE
    ../clib/stdio.c                          0x00000000   Number         0  fflush.o ABSOLUTE
    ../clib/stdio.c                          0x00000000   Number         0  fwritefast_locked.o ABSOLUTE
    ../clib/stdio.c                          0x00000000   Number         0  fwritefast.o ABSOLUTE
    ../clib/stdio.c                          0x00000000   Number         0  stdio.o ABSOLUTE
    ../clib/stdio.c                          0x00000000   Number         0  fseek.o ABSOLUTE
    ../clib/stdio.c                          0x00000000   Number         0  ftell.o ABSOLUTE
    ../clib/stdio.c                          0x00000000   Number         0  fputs_locked.o ABSOLUTE
    ../clib/stdio.c                          0x00000000   Number         0  fflush_locked.o ABSOLUTE
    ../clib/stdio.c                          0x00000000   Number         0  fopen_locked.o ABSOLUTE
    ../clib/stdio.c                          0x00000000   Number         0  setvbuf_locked.o ABSOLUTE
    ../clib/stdio.c                          0x00000000   Number         0  fclose.o ABSOLUTE
    ../clib/stdio.c                          0x00000000   Number         0  fopen.o ABSOLUTE
    ../clib/stdio.c                          0x00000000   Number         0  streamlock.o ABSOLUTE
    ../clib/stdio.c                          0x00000000   Number         0  setvbuf.o ABSOLUTE
    ../clib/stdio.c                          0x00000000   Number         0  flsbuf.o ABSOLUTE
    ../clib/stdio.c                          0x00000000   Number         0  initio_locked.o ABSOLUTE
    ../clib/stdio.c                          0x00000000   Number         0  ferror_locked.o ABSOLUTE
    ../clib/stdio.c                          0x00000000   Number         0  fputc_locked.o ABSOLUTE
    ../clib/stdlib.c                         0x00000000   Number         0  exit.o ABSOLUTE
    ../clib/string.c                         0x00000000   Number         0  strlen.o ABSOLUTE
    ../clib/wchar.c                          0x00000000   Number         0  flsbuf_fwide.o ABSOLUTE
    ../fplib/fpinit.s                        0x00000000   Number         0  fpinit.o ABSOLUTE
    ..\Core\Src\gpio.c                       0x00000000   Number         0  gpio.o ABSOLUTE
    ..\Core\Src\main.c                       0x00000000   Number         0  main.o ABSOLUTE
    ..\Core\Src\spi.c                        0x00000000   Number         0  spi.o ABSOLUTE
    ..\Core\Src\stm32f1xx_hal_msp.c          0x00000000   Number         0  stm32f1xx_hal_msp.o ABSOLUTE
    ..\Core\Src\stm32f1xx_it.c               0x00000000   Number         0  stm32f1xx_it.o ABSOLUTE
    ..\Core\Src\system_stm32f1xx.c           0x00000000   Number         0  system_stm32f1xx.o ABSOLUTE
    ..\Drivers\STM32F1xx_HAL_Driver\Src\stm32f1xx_hal.c 0x00000000   Number         0  stm32f1xx_hal.o ABSOLUTE
    ..\Drivers\STM32F1xx_HAL_Driver\Src\stm32f1xx_hal_cortex.c 0x00000000   Number         0  stm32f1xx_hal_cortex.o ABSOLUTE
    ..\Drivers\STM32F1xx_HAL_Driver\Src\stm32f1xx_hal_dma.c 0x00000000   Number         0  stm32f1xx_hal_dma.o ABSOLUTE
    ..\Drivers\STM32F1xx_HAL_Driver\Src\stm32f1xx_hal_exti.c 0x00000000   Number         0  stm32f1xx_hal_exti.o ABSOLUTE
    ..\Drivers\STM32F1xx_HAL_Driver\Src\stm32f1xx_hal_flash.c 0x00000000   Number         0  stm32f1xx_hal_flash.o ABSOLUTE
    ..\Drivers\STM32F1xx_HAL_Driver\Src\stm32f1xx_hal_flash_ex.c 0x00000000   Number         0  stm32f1xx_hal_flash_ex.o ABSOLUTE
    ..\Drivers\STM32F1xx_HAL_Driver\Src\stm32f1xx_hal_gpio.c 0x00000000   Number         0  stm32f1xx_hal_gpio.o ABSOLUTE
    ..\Drivers\STM32F1xx_HAL_Driver\Src\stm32f1xx_hal_gpio_ex.c 0x00000000   Number         0  stm32f1xx_hal_gpio_ex.o ABSOLUTE
    ..\Drivers\STM32F1xx_HAL_Driver\Src\stm32f1xx_hal_pwr.c 0x00000000   Number         0  stm32f1xx_hal_pwr.o ABSOLUTE
    ..\Drivers\STM32F1xx_HAL_Driver\Src\stm32f1xx_hal_rcc.c 0x00000000   Number         0  stm32f1xx_hal_rcc.o ABSOLUTE
    ..\Drivers\STM32F1xx_HAL_Driver\Src\stm32f1xx_hal_rcc_ex.c 0x00000000   Number         0  stm32f1xx_hal_rcc_ex.o ABSOLUTE
    ..\Drivers\STM32F1xx_HAL_Driver\Src\stm32f1xx_hal_spi.c 0x00000000   Number         0  stm32f1xx_hal_spi.o ABSOLUTE
    ..\Drivers\STM32F1xx_HAL_Driver\Src\stm32f1xx_hal_tim.c 0x00000000   Number         0  stm32f1xx_hal_tim.o ABSOLUTE
    ..\Drivers\STM32F1xx_HAL_Driver\Src\stm32f1xx_hal_tim_ex.c 0x00000000   Number         0  stm32f1xx_hal_tim_ex.o ABSOLUTE
    ..\UserLib\U8G2\mui.c                    0x00000000   Number         0  mui.o ABSOLUTE
    ..\UserLib\U8G2\mui_u8g2.c               0x00000000   Number         0  mui_u8g2.o ABSOLUTE
    ..\UserLib\U8G2\u8g2_bitmap.c            0x00000000   Number         0  u8g2_bitmap.o ABSOLUTE
    ..\UserLib\U8G2\u8g2_box.c               0x00000000   Number         0  u8g2_box.o ABSOLUTE
    ..\UserLib\U8G2\u8g2_buffer.c            0x00000000   Number         0  u8g2_buffer.o ABSOLUTE
    ..\UserLib\U8G2\u8g2_button.c            0x00000000   Number         0  u8g2_button.o ABSOLUTE
    ..\UserLib\U8G2\u8g2_circle.c            0x00000000   Number         0  u8g2_circle.o ABSOLUTE
    ..\UserLib\U8G2\u8g2_cleardisplay.c      0x00000000   Number         0  u8g2_cleardisplay.o ABSOLUTE
    ..\UserLib\U8G2\u8g2_d_memory.c          0x00000000   Number         0  u8g2_d_memory.o ABSOLUTE
    ..\UserLib\U8G2\u8g2_d_setup.c           0x00000000   Number         0  u8g2_d_setup.o ABSOLUTE
    ..\UserLib\U8G2\u8g2_font.c              0x00000000   Number         0  u8g2_font.o ABSOLUTE
    ..\UserLib\U8G2\u8g2_fonts.c             0x00000000   Number         0  u8g2_fonts.o ABSOLUTE
    ..\UserLib\U8G2\u8g2_hvline.c            0x00000000   Number         0  u8g2_hvline.o ABSOLUTE
    ..\UserLib\U8G2\u8g2_input_value.c       0x00000000   Number         0  u8g2_input_value.o ABSOLUTE
    ..\UserLib\U8G2\u8g2_intersection.c      0x00000000   Number         0  u8g2_intersection.o ABSOLUTE
    ..\UserLib\U8G2\u8g2_kerning.c           0x00000000   Number         0  u8g2_kerning.o ABSOLUTE
    ..\UserLib\U8G2\u8g2_line.c              0x00000000   Number         0  u8g2_line.o ABSOLUTE
    ..\UserLib\U8G2\u8g2_ll_hvline.c         0x00000000   Number         0  u8g2_ll_hvline.o ABSOLUTE
    ..\UserLib\U8G2\u8g2_message.c           0x00000000   Number         0  u8g2_message.o ABSOLUTE
    ..\UserLib\U8G2\u8g2_polygon.c           0x00000000   Number         0  u8g2_polygon.o ABSOLUTE
    ..\UserLib\U8G2\u8g2_selection_list.c    0x00000000   Number         0  u8g2_selection_list.o ABSOLUTE
    ..\UserLib\U8G2\u8g2_setup.c             0x00000000   Number         0  u8g2_setup.o ABSOLUTE
    ..\UserLib\U8G2\u8log.c                  0x00000000   Number         0  u8log.o ABSOLUTE
    ..\UserLib\U8G2\u8log_u8g2.c             0x00000000   Number         0  u8log_u8g2.o ABSOLUTE
    ..\UserLib\U8G2\u8log_u8x8.c             0x00000000   Number         0  u8log_u8x8.o ABSOLUTE
    ..\UserLib\U8G2\u8x8_8x8.c               0x00000000   Number         0  u8x8_8x8.o ABSOLUTE
    ..\UserLib\U8G2\u8x8_byte.c              0x00000000   Number         0  u8x8_byte.o ABSOLUTE
    ..\UserLib\U8G2\u8x8_cad.c               0x00000000   Number         0  u8x8_cad.o ABSOLUTE
    ..\UserLib\U8G2\u8x8_capture.c           0x00000000   Number         0  u8x8_capture.o ABSOLUTE
    ..\UserLib\U8G2\u8x8_d_a2printer.c       0x00000000   Number         0  u8x8_d_a2printer.o ABSOLUTE
    ..\UserLib\U8G2\u8x8_d_gu800.c           0x00000000   Number         0  u8x8_d_gu800.o ABSOLUTE
    ..\UserLib\U8G2\u8x8_d_hd44102.c         0x00000000   Number         0  u8x8_d_hd44102.o ABSOLUTE
    ..\UserLib\U8G2\u8x8_d_il3820_296x128.c  0x00000000   Number         0  u8x8_d_il3820_296x128.o ABSOLUTE
    ..\UserLib\U8G2\u8x8_d_ist3020.c         0x00000000   Number         0  u8x8_d_ist3020.o ABSOLUTE
    ..\UserLib\U8G2\u8x8_d_ist7920.c         0x00000000   Number         0  u8x8_d_ist7920.o ABSOLUTE
    ..\UserLib\U8G2\u8x8_d_ks0108.c          0x00000000   Number         0  u8x8_d_ks0108.o ABSOLUTE
    ..\UserLib\U8G2\u8x8_d_lc7981.c          0x00000000   Number         0  u8x8_d_lc7981.o ABSOLUTE
    ..\UserLib\U8G2\u8x8_d_ld7032_60x32.c    0x00000000   Number         0  u8x8_d_ld7032_60x32.o ABSOLUTE
    ..\UserLib\U8G2\u8x8_d_ls013b7dh03.c     0x00000000   Number         0  u8x8_d_ls013b7dh03.o ABSOLUTE
    ..\UserLib\U8G2\u8x8_d_max7219.c         0x00000000   Number         0  u8x8_d_max7219.o ABSOLUTE
    ..\UserLib\U8G2\u8x8_d_pcd8544_84x48.c   0x00000000   Number         0  u8x8_d_pcd8544_84x48.o ABSOLUTE
    ..\UserLib\U8G2\u8x8_d_pcf8812.c         0x00000000   Number         0  u8x8_d_pcf8812.o ABSOLUTE
    ..\UserLib\U8G2\u8x8_d_pcf8814_hx1230.c  0x00000000   Number         0  u8x8_d_pcf8814_hx1230.o ABSOLUTE
    ..\UserLib\U8G2\u8x8_d_s1d15721.c        0x00000000   Number         0  u8x8_d_s1d15721.o ABSOLUTE
    ..\UserLib\U8G2\u8x8_d_s1d15e06.c        0x00000000   Number         0  u8x8_d_s1d15e06.o ABSOLUTE
    ..\UserLib\U8G2\u8x8_d_sbn1661.c         0x00000000   Number         0  u8x8_d_sbn1661.o ABSOLUTE
    ..\UserLib\U8G2\u8x8_d_sed1330.c         0x00000000   Number         0  u8x8_d_sed1330.o ABSOLUTE
    ..\UserLib\U8G2\u8x8_d_sh1106_64x32.c    0x00000000   Number         0  u8x8_d_sh1106_64x32.o ABSOLUTE
    ..\UserLib\U8G2\u8x8_d_sh1106_72x40.c    0x00000000   Number         0  u8x8_d_sh1106_72x40.o ABSOLUTE
    ..\UserLib\U8G2\u8x8_d_sh1107.c          0x00000000   Number         0  u8x8_d_sh1107.o ABSOLUTE
    ..\UserLib\U8G2\u8x8_d_sh1108.c          0x00000000   Number         0  u8x8_d_sh1108.o ABSOLUTE
    ..\UserLib\U8G2\u8x8_d_sh1122.c          0x00000000   Number         0  u8x8_d_sh1122.o ABSOLUTE
    ..\UserLib\U8G2\u8x8_d_ssd1305.c         0x00000000   Number         0  u8x8_d_ssd1305.o ABSOLUTE
    ..\UserLib\U8G2\u8x8_d_ssd1306_128x32.c  0x00000000   Number         0  u8x8_d_ssd1306_128x32.o ABSOLUTE
    ..\UserLib\U8G2\u8x8_d_ssd1306_128x64_noname.c 0x00000000   Number         0  u8x8_d_ssd1306_128x64_noname.o ABSOLUTE
    ..\UserLib\U8G2\u8x8_d_ssd1306_2040x16.c 0x00000000   Number         0  u8x8_d_ssd1306_2040x16.o ABSOLUTE
    ..\UserLib\U8G2\u8x8_d_ssd1306_48x64.c   0x00000000   Number         0  u8x8_d_ssd1306_48x64.o ABSOLUTE
    ..\UserLib\U8G2\u8x8_d_ssd1306_64x32.c   0x00000000   Number         0  u8x8_d_ssd1306_64x32.o ABSOLUTE
    ..\UserLib\U8G2\u8x8_d_ssd1306_64x48.c   0x00000000   Number         0  u8x8_d_ssd1306_64x48.o ABSOLUTE
    ..\UserLib\U8G2\u8x8_d_ssd1306_72x40.c   0x00000000   Number         0  u8x8_d_ssd1306_72x40.o ABSOLUTE
    ..\UserLib\U8G2\u8x8_d_ssd1306_96x16.c   0x00000000   Number         0  u8x8_d_ssd1306_96x16.o ABSOLUTE
    ..\UserLib\U8G2\u8x8_d_ssd1306_96x40.c   0x00000000   Number         0  u8x8_d_ssd1306_96x40.o ABSOLUTE
    ..\UserLib\U8G2\u8x8_d_ssd1309.c         0x00000000   Number         0  u8x8_d_ssd1309.o ABSOLUTE
    ..\UserLib\U8G2\u8x8_d_ssd1316.c         0x00000000   Number         0  u8x8_d_ssd1316.o ABSOLUTE
    ..\UserLib\U8G2\u8x8_d_ssd1317.c         0x00000000   Number         0  u8x8_d_ssd1317.o ABSOLUTE
    ..\UserLib\U8G2\u8x8_d_ssd1318.c         0x00000000   Number         0  u8x8_d_ssd1318.o ABSOLUTE
    ..\UserLib\U8G2\u8x8_d_ssd1320.c         0x00000000   Number         0  u8x8_d_ssd1320.o ABSOLUTE
    ..\UserLib\U8G2\u8x8_d_ssd1322.c         0x00000000   Number         0  u8x8_d_ssd1322.o ABSOLUTE
    ..\UserLib\U8G2\u8x8_d_ssd1325.c         0x00000000   Number         0  u8x8_d_ssd1325.o ABSOLUTE
    ..\UserLib\U8G2\u8x8_d_ssd1326.c         0x00000000   Number         0  u8x8_d_ssd1326.o ABSOLUTE
    ..\UserLib\U8G2\u8x8_d_ssd1327.c         0x00000000   Number         0  u8x8_d_ssd1327.o ABSOLUTE
    ..\UserLib\U8G2\u8x8_d_ssd1329.c         0x00000000   Number         0  u8x8_d_ssd1329.o ABSOLUTE
    ..\UserLib\U8G2\u8x8_d_ssd1606_172x72.c  0x00000000   Number         0  u8x8_d_ssd1606_172x72.o ABSOLUTE
    ..\UserLib\U8G2\u8x8_d_ssd1607_200x200.c 0x00000000   Number         0  u8x8_d_ssd1607_200x200.o ABSOLUTE
    ..\UserLib\U8G2\u8x8_d_st7511.c          0x00000000   Number         0  u8x8_d_st7511.o ABSOLUTE
    ..\UserLib\U8G2\u8x8_d_st75160.c         0x00000000   Number         0  u8x8_d_st75160.o ABSOLUTE
    ..\UserLib\U8G2\u8x8_d_st75256.c         0x00000000   Number         0  u8x8_d_st75256.o ABSOLUTE
    ..\UserLib\U8G2\u8x8_d_st7528.c          0x00000000   Number         0  u8x8_d_st7528.o ABSOLUTE
    ..\UserLib\U8G2\u8x8_d_st75320.c         0x00000000   Number         0  u8x8_d_st75320.o ABSOLUTE
    ..\UserLib\U8G2\u8x8_d_st7565.c          0x00000000   Number         0  u8x8_d_st7565.o ABSOLUTE
    ..\UserLib\U8G2\u8x8_d_st7567.c          0x00000000   Number         0  u8x8_d_st7567.o ABSOLUTE
    ..\UserLib\U8G2\u8x8_d_st7571.c          0x00000000   Number         0  u8x8_d_st7571.o ABSOLUTE
    ..\UserLib\U8G2\u8x8_d_st7586s_erc240160.c 0x00000000   Number         0  u8x8_d_st7586s_erc240160.o ABSOLUTE
    ..\UserLib\U8G2\u8x8_d_st7586s_s028hn118a.c 0x00000000   Number         0  u8x8_d_st7586s_s028hn118a.o ABSOLUTE
    ..\UserLib\U8G2\u8x8_d_st7586s_ymc240160.c 0x00000000   Number         0  u8x8_d_st7586s_ymc240160.o ABSOLUTE
    ..\UserLib\U8G2\u8x8_d_st7588.c          0x00000000   Number         0  u8x8_d_st7588.o ABSOLUTE
    ..\UserLib\U8G2\u8x8_d_st7920.c          0x00000000   Number         0  u8x8_d_st7920.o ABSOLUTE
    ..\UserLib\U8G2\u8x8_d_stdio.c           0x00000000   Number         0  u8x8_d_stdio.o ABSOLUTE
    ..\UserLib\U8G2\u8x8_d_t6963.c           0x00000000   Number         0  u8x8_d_t6963.o ABSOLUTE
    ..\UserLib\U8G2\u8x8_d_uc1601.c          0x00000000   Number         0  u8x8_d_uc1601.o ABSOLUTE
    ..\UserLib\U8G2\u8x8_d_uc1604.c          0x00000000   Number         0  u8x8_d_uc1604.o ABSOLUTE
    ..\UserLib\U8G2\u8x8_d_uc1608.c          0x00000000   Number         0  u8x8_d_uc1608.o ABSOLUTE
    ..\UserLib\U8G2\u8x8_d_uc1609.c          0x00000000   Number         0  u8x8_d_uc1609.o ABSOLUTE
    ..\UserLib\U8G2\u8x8_d_uc1610.c          0x00000000   Number         0  u8x8_d_uc1610.o ABSOLUTE
    ..\UserLib\U8G2\u8x8_d_uc1611.c          0x00000000   Number         0  u8x8_d_uc1611.o ABSOLUTE
    ..\UserLib\U8G2\u8x8_d_uc1617.c          0x00000000   Number         0  u8x8_d_uc1617.o ABSOLUTE
    ..\UserLib\U8G2\u8x8_d_uc1638.c          0x00000000   Number         0  u8x8_d_uc1638.o ABSOLUTE
    ..\UserLib\U8G2\u8x8_d_uc1701_dogs102.c  0x00000000   Number         0  u8x8_d_uc1701_dogs102.o ABSOLUTE
    ..\UserLib\U8G2\u8x8_d_uc1701_mini12864.c 0x00000000   Number         0  u8x8_d_uc1701_mini12864.o ABSOLUTE
    ..\UserLib\U8G2\u8x8_debounce.c          0x00000000   Number         0  u8x8_debounce.o ABSOLUTE
    ..\UserLib\U8G2\u8x8_display.c           0x00000000   Number         0  u8x8_display.o ABSOLUTE
    ..\UserLib\U8G2\u8x8_fonts.c             0x00000000   Number         0  u8x8_fonts.o ABSOLUTE
    ..\UserLib\U8G2\u8x8_gpio.c              0x00000000   Number         0  u8x8_gpio.o ABSOLUTE
    ..\UserLib\U8G2\u8x8_input_value.c       0x00000000   Number         0  u8x8_input_value.o ABSOLUTE
    ..\UserLib\U8G2\u8x8_message.c           0x00000000   Number         0  u8x8_message.o ABSOLUTE
    ..\UserLib\U8G2\u8x8_selection_list.c    0x00000000   Number         0  u8x8_selection_list.o ABSOLUTE
    ..\UserLib\U8G2\u8x8_setup.c             0x00000000   Number         0  u8x8_setup.o ABSOLUTE
    ..\UserLib\U8G2\u8x8_string.c            0x00000000   Number         0  u8x8_string.o ABSOLUTE
    ..\UserLib\U8G2\u8x8_u16toa.c            0x00000000   Number         0  u8x8_u16toa.o ABSOLUTE
    ..\UserLib\U8G2\u8x8_u8toa.c             0x00000000   Number         0  u8x8_u8toa.o ABSOLUTE
    ..\User\Src\ledb_handle.c                0x00000000   Number         0  ledb_handle.o ABSOLUTE
    ..\User\Src\userlib_u8g2_handle.c        0x00000000   Number         0  userlib_u8g2_handle.o ABSOLUTE
    ..\User\Src\userlib_u8g2_img_nnk.c       0x00000000   Number         0  userlib_u8g2_img_nnk.o ABSOLUTE
    ..\User\Src\userlib_u8g2_img_wjy.c       0x00000000   Number         0  userlib_u8g2_img_wjy.o ABSOLUTE
    ..\\User\\Src\\ledb_handle.c             0x00000000   Number         0  ledb_handle.o ABSOLUTE
    ..\\User\\Src\\userlib_u8g2_handle.c     0x00000000   Number         0  userlib_u8g2_handle.o ABSOLUTE
    ..\\User\\Src\\userlib_u8g2_img_nnk.c    0x00000000   Number         0  userlib_u8g2_img_nnk.o ABSOLUTE
    ..\\User\\Src\\userlib_u8g2_img_wjy.c    0x00000000   Number         0  userlib_u8g2_img_wjy.o ABSOLUTE
    dc.s                                     0x00000000   Number         0  dc.o ABSOLUTE
    startup_stm32f103xb.s                    0x00000000   Number         0  startup_stm32f103xb.o ABSOLUTE
    RESET                                    0x08000000   Section      236  startup_stm32f103xb.o(RESET)
    !!!main                                  0x080000ec   Section        8  __main.o(!!!main)
    !!!scatter                               0x080000f4   Section       52  __scatter.o(!!!scatter)
    !!handler_copy                           0x08000128   Section       26  __scatter_copy.o(!!handler_copy)
    !!handler_zi                             0x08000144   Section       28  __scatter_zi.o(!!handler_zi)
    .ARM.Collect$$libinit$$00000000          0x08000160   Section        2  libinit.o(.ARM.Collect$$libinit$$00000000)
    .ARM.Collect$$libinit$$00000002          0x08000162   Section        0  libinit2.o(.ARM.Collect$$libinit$$00000002)
    .ARM.Collect$$libinit$$00000004          0x08000162   Section        0  libinit2.o(.ARM.Collect$$libinit$$00000004)
    .ARM.Collect$$libinit$$0000000A          0x08000162   Section        0  libinit2.o(.ARM.Collect$$libinit$$0000000A)
    .ARM.Collect$$libinit$$0000000C          0x08000162   Section        0  libinit2.o(.ARM.Collect$$libinit$$0000000C)
    .ARM.Collect$$libinit$$0000000E          0x08000162   Section        0  libinit2.o(.ARM.Collect$$libinit$$0000000E)
    .ARM.Collect$$libinit$$00000011          0x08000162   Section        0  libinit2.o(.ARM.Collect$$libinit$$00000011)
    .ARM.Collect$$libinit$$00000013          0x08000162   Section        0  libinit2.o(.ARM.Collect$$libinit$$00000013)
    .ARM.Collect$$libinit$$00000015          0x08000162   Section        0  libinit2.o(.ARM.Collect$$libinit$$00000015)
    .ARM.Collect$$libinit$$00000017          0x08000162   Section        0  libinit2.o(.ARM.Collect$$libinit$$00000017)
    .ARM.Collect$$libinit$$00000019          0x08000162   Section        0  libinit2.o(.ARM.Collect$$libinit$$00000019)
    .ARM.Collect$$libinit$$0000001B          0x08000162   Section        0  libinit2.o(.ARM.Collect$$libinit$$0000001B)
    .ARM.Collect$$libinit$$0000001D          0x08000162   Section        0  libinit2.o(.ARM.Collect$$libinit$$0000001D)
    .ARM.Collect$$libinit$$0000001F          0x08000162   Section        0  libinit2.o(.ARM.Collect$$libinit$$0000001F)
    .ARM.Collect$$libinit$$00000021          0x08000162   Section        0  libinit2.o(.ARM.Collect$$libinit$$00000021)
    .ARM.Collect$$libinit$$00000023          0x08000162   Section        0  libinit2.o(.ARM.Collect$$libinit$$00000023)
    .ARM.Collect$$libinit$$00000025          0x08000162   Section        0  libinit2.o(.ARM.Collect$$libinit$$00000025)
    .ARM.Collect$$libinit$$0000002C          0x08000162   Section        0  libinit2.o(.ARM.Collect$$libinit$$0000002C)
    .ARM.Collect$$libinit$$0000002E          0x08000162   Section        0  libinit2.o(.ARM.Collect$$libinit$$0000002E)
    .ARM.Collect$$libinit$$00000030          0x08000162   Section        0  libinit2.o(.ARM.Collect$$libinit$$00000030)
    .ARM.Collect$$libinit$$00000032          0x08000162   Section        0  libinit2.o(.ARM.Collect$$libinit$$00000032)
    .ARM.Collect$$libinit$$00000033          0x08000162   Section        2  libinit2.o(.ARM.Collect$$libinit$$00000033)
    .ARM.Collect$$libshutdown$$00000000      0x08000164   Section        2  libshutdown.o(.ARM.Collect$$libshutdown$$00000000)
    .ARM.Collect$$libshutdown$$00000002      0x08000166   Section        0  libshutdown2.o(.ARM.Collect$$libshutdown$$00000002)
    .ARM.Collect$$libshutdown$$00000004      0x08000166   Section        0  libshutdown2.o(.ARM.Collect$$libshutdown$$00000004)
    .ARM.Collect$$libshutdown$$00000007      0x08000166   Section        0  libshutdown2.o(.ARM.Collect$$libshutdown$$00000007)
    .ARM.Collect$$libshutdown$$0000000A      0x08000166   Section        0  libshutdown2.o(.ARM.Collect$$libshutdown$$0000000A)
    .ARM.Collect$$libshutdown$$0000000C      0x08000166   Section        0  libshutdown2.o(.ARM.Collect$$libshutdown$$0000000C)
    .ARM.Collect$$libshutdown$$0000000F      0x08000166   Section        0  libshutdown2.o(.ARM.Collect$$libshutdown$$0000000F)
    .ARM.Collect$$libshutdown$$00000010      0x08000166   Section        2  libshutdown2.o(.ARM.Collect$$libshutdown$$00000010)
    .ARM.Collect$$rtentry$$00000000          0x08000168   Section        0  __rtentry.o(.ARM.Collect$$rtentry$$00000000)
    .ARM.Collect$$rtentry$$00000002          0x08000168   Section        0  __rtentry2.o(.ARM.Collect$$rtentry$$00000002)
    .ARM.Collect$$rtentry$$00000004          0x08000168   Section        6  __rtentry4.o(.ARM.Collect$$rtentry$$00000004)
    .ARM.Collect$$rtentry$$00000009          0x0800016e   Section        0  __rtentry2.o(.ARM.Collect$$rtentry$$00000009)
    .ARM.Collect$$rtentry$$0000000A          0x0800016e   Section        4  __rtentry2.o(.ARM.Collect$$rtentry$$0000000A)
    .ARM.Collect$$rtentry$$0000000C          0x08000172   Section        0  __rtentry2.o(.ARM.Collect$$rtentry$$0000000C)
    .ARM.Collect$$rtentry$$0000000D          0x08000172   Section        8  __rtentry2.o(.ARM.Collect$$rtentry$$0000000D)
    .ARM.Collect$$rtexit$$00000000           0x0800017a   Section        2  rtexit.o(.ARM.Collect$$rtexit$$00000000)
    .ARM.Collect$$rtexit$$00000002           0x0800017c   Section        0  rtexit2.o(.ARM.Collect$$rtexit$$00000002)
    .ARM.Collect$$rtexit$$00000003           0x0800017c   Section        4  rtexit2.o(.ARM.Collect$$rtexit$$00000003)
    .ARM.Collect$$rtexit$$00000004           0x08000180   Section        6  rtexit2.o(.ARM.Collect$$rtexit$$00000004)
    .text                                    0x08000188   Section       64  startup_stm32f103xb.o(.text)
    .text                                    0x080001c8   Section       68  rt_memclr.o(.text)
    .text                                    0x0800020c   Section       78  rt_memclr_w.o(.text)
    .text                                    0x0800025a   Section        0  heapauxi.o(.text)
    .text                                    0x08000260   Section       74  sys_stackheap_outer.o(.text)
    .text                                    0x080002aa   Section        0  exit.o(.text)
    .text                                    0x080002bc   Section        8  libspace.o(.text)
    .text                                    0x080002c4   Section        2  use_no_semi.o(.text)
    .text                                    0x080002c6   Section        0  indicate_semi.o(.text)
    .text                                    0x080002c8   Section        0  sys_exit.o(.text)
    i.BusFault_Handler                       0x080002d4   Section        0  stm32f1xx_it.o(i.BusFault_Handler)
    i.DebugMon_Handler                       0x080002d6   Section        0  stm32f1xx_it.o(i.DebugMon_Handler)
    i.Error_Handler                          0x080002d8   Section        0  main.o(i.Error_Handler)
    i.HAL_Delay                              0x080002dc   Section        0  stm32f1xx_hal.o(i.HAL_Delay)
    i.HAL_GPIO_Init                          0x08000300   Section        0  stm32f1xx_hal_gpio.o(i.HAL_GPIO_Init)
    i.HAL_GPIO_WritePin                      0x080004e0   Section        0  stm32f1xx_hal_gpio.o(i.HAL_GPIO_WritePin)
    i.HAL_GetTick                            0x080004ec   Section        0  stm32f1xx_hal.o(i.HAL_GetTick)
    i.HAL_IncTick                            0x080004f8   Section        0  stm32f1xx_hal.o(i.HAL_IncTick)
    i.HAL_Init                               0x08000508   Section        0  stm32f1xx_hal.o(i.HAL_Init)
    i.HAL_InitTick                           0x0800052c   Section        0  stm32f1xx_hal.o(i.HAL_InitTick)
    i.HAL_MspInit                            0x0800056c   Section        0  stm32f1xx_hal_msp.o(i.HAL_MspInit)
    i.HAL_NVIC_SetPriority                   0x080005a8   Section        0  stm32f1xx_hal_cortex.o(i.HAL_NVIC_SetPriority)
    i.HAL_NVIC_SetPriorityGrouping           0x080005e8   Section        0  stm32f1xx_hal_cortex.o(i.HAL_NVIC_SetPriorityGrouping)
    i.HAL_RCC_ClockConfig                    0x0800060c   Section        0  stm32f1xx_hal_rcc.o(i.HAL_RCC_ClockConfig)
    i.HAL_RCC_GetSysClockFreq                0x08000738   Section        0  stm32f1xx_hal_rcc.o(i.HAL_RCC_GetSysClockFreq)
    i.HAL_RCC_OscConfig                      0x080007a4   Section        0  stm32f1xx_hal_rcc.o(i.HAL_RCC_OscConfig)
    i.HAL_SPI_Init                           0x08000ac4   Section        0  stm32f1xx_hal_spi.o(i.HAL_SPI_Init)
    i.HAL_SPI_MspInit                        0x08000b78   Section        0  spi.o(i.HAL_SPI_MspInit)
    i.HAL_SPI_Transmit                       0x08000bd4   Section        0  stm32f1xx_hal_spi.o(i.HAL_SPI_Transmit)
    i.HAL_SYSTICK_Config                     0x08000d3a   Section        0  stm32f1xx_hal_cortex.o(i.HAL_SYSTICK_Config)
    i.HardFault_Handler                      0x08000d62   Section        0  stm32f1xx_it.o(i.HardFault_Handler)
    i.MX_GPIO_Init                           0x08000d64   Section        0  gpio.o(i.MX_GPIO_Init)
    i.MX_SPI1_Init                           0x08000e08   Section        0  spi.o(i.MX_SPI1_Init)
    i.MemManage_Handler                      0x08000e4c   Section        0  stm32f1xx_it.o(i.MemManage_Handler)
    i.NMI_Handler                            0x08000e4e   Section        0  stm32f1xx_it.o(i.NMI_Handler)
    i.PendSV_Handler                         0x08000e50   Section        0  stm32f1xx_it.o(i.PendSV_Handler)
    i.SPI_EndRxTxTransaction                 0x08000e52   Section        0  stm32f1xx_hal_spi.o(i.SPI_EndRxTxTransaction)
    SPI_EndRxTxTransaction                   0x08000e53   Thumb Code    32  stm32f1xx_hal_spi.o(i.SPI_EndRxTxTransaction)
    i.SPI_WaitFlagStateUntilTimeout          0x08000e74   Section        0  stm32f1xx_hal_spi.o(i.SPI_WaitFlagStateUntilTimeout)
    SPI_WaitFlagStateUntilTimeout            0x08000e75   Thumb Code   180  stm32f1xx_hal_spi.o(i.SPI_WaitFlagStateUntilTimeout)
    i.SVC_Handler                            0x08000f2c   Section        0  stm32f1xx_it.o(i.SVC_Handler)
    i.SysTick_Handler                        0x08000f2e   Section        0  stm32f1xx_it.o(i.SysTick_Handler)
    i.SystemClock_Config                     0x08000f32   Section        0  main.o(i.SystemClock_Config)
    i.SystemInit                             0x08000f90   Section        0  system_stm32f1xx.o(i.SystemInit)
    i.UsageFault_Handler                     0x08000f92   Section        0  stm32f1xx_it.o(i.UsageFault_Handler)
    i.__NVIC_SetPriority                     0x08000f94   Section        0  stm32f1xx_hal_cortex.o(i.__NVIC_SetPriority)
    __NVIC_SetPriority                       0x08000f95   Thumb Code    32  stm32f1xx_hal_cortex.o(i.__NVIC_SetPriority)
    i.ledb_off                               0x08000fb4   Section        0  ledb_handle.o(i.ledb_off)
    i.ledb_on                                0x08000fc4   Section        0  ledb_handle.o(i.ledb_on)
    i.ledb_test                              0x08000fd4   Section        0  ledb_handle.o(i.ledb_test)
    i.main                                   0x08000ff4   Section        0  main.o(i.main)
    i.u8g2_ClearBuffer                       0x0800100e   Section        0  u8g2_buffer.o(i.u8g2_ClearBuffer)
    i.u8g2_DrawGlyph                         0x08001020   Section        0  u8g2_font.o(i.u8g2_DrawGlyph)
    i.u8g2_DrawHVLine                        0x08001090   Section        0  u8g2_hvline.o(i.u8g2_DrawHVLine)
    i.u8g2_DrawHXBMP                         0x0800113c   Section        0  u8g2_bitmap.o(i.u8g2_DrawHXBMP)
    i.u8g2_DrawStr                           0x080011d0   Section        0  u8g2_font.o(i.u8g2_DrawStr)
    i.u8g2_DrawXBMP                          0x080011e0   Section        0  u8g2_bitmap.o(i.u8g2_DrawXBMP)
    i.u8g2_IsIntersection                    0x0800122c   Section        0  u8g2_intersection.o(i.u8g2_IsIntersection)
    i.u8g2_SendBuffer                        0x0800125c   Section        0  u8g2_buffer.o(i.u8g2_SendBuffer)
    i.u8g2_SetFont                           0x0800126e   Section        0  u8g2_font.o(i.u8g2_SetFont)
    i.u8g2_SetFontPosBaseline                0x08001290   Section        0  u8g2_font.o(i.u8g2_SetFontPosBaseline)
    i.u8g2_SetMaxClipWindow                  0x0800129c   Section        0  u8g2_setup.o(i.u8g2_SetMaxClipWindow)
    i.u8g2_SetupBuffer                       0x080012b8   Section        0  u8g2_setup.o(i.u8g2_SetupBuffer)
    i.u8g2_Setup_ssd1306_128x64_noname_f     0x080012fc   Section        0  u8g2_d_setup.o(i.u8g2_Setup_ssd1306_128x64_noname_f)
    i.u8g2_UpdateRefHeight                   0x08001334   Section        0  u8g2_font.o(i.u8g2_UpdateRefHeight)
    i.u8g2_add_vector_x                      0x08001386   Section        0  u8g2_font.o(i.u8g2_add_vector_x)
    i.u8g2_add_vector_y                      0x080013a2   Section        0  u8g2_font.o(i.u8g2_add_vector_y)
    i.u8g2_apply_clip_window                 0x080013be   Section        0  u8g2_setup.o(i.u8g2_apply_clip_window)
    u8g2_apply_clip_window                   0x080013bf   Thumb Code   110  u8g2_setup.o(i.u8g2_apply_clip_window)
    i.u8g2_clip_intersection2                0x0800142c   Section        0  u8g2_hvline.o(i.u8g2_clip_intersection2)
    u8g2_clip_intersection2                  0x0800142d   Thumb Code    60  u8g2_hvline.o(i.u8g2_clip_intersection2)
    i.u8g2_draw_hv_line_2dir                 0x08001468   Section        0  u8g2_hvline.o(i.u8g2_draw_hv_line_2dir)
    i.u8g2_draw_l90_r0                       0x0800147a   Section        0  u8g2_setup.o(i.u8g2_draw_l90_r0)
    i.u8g2_draw_string                       0x08001486   Section        0  u8g2_font.o(i.u8g2_draw_string)
    u8g2_draw_string                         0x08001487   Thumb Code   118  u8g2_font.o(i.u8g2_draw_string)
    i.u8g2_font_calc_vref_font               0x080014fc   Section        0  u8g2_font.o(i.u8g2_font_calc_vref_font)
    i.u8g2_font_decode_get_signed_bits       0x08001500   Section        0  u8g2_font.o(i.u8g2_font_decode_get_signed_bits)
    i.u8g2_font_decode_get_unsigned_bits     0x08001514   Section        0  u8g2_font.o(i.u8g2_font_decode_get_unsigned_bits)
    i.u8g2_font_decode_glyph                 0x08001548   Section        0  u8g2_font.o(i.u8g2_font_decode_glyph)
    i.u8g2_font_decode_len                   0x0800165c   Section        0  u8g2_font.o(i.u8g2_font_decode_len)
    i.u8g2_font_get_glyph_data               0x080016e8   Section        0  u8g2_font.o(i.u8g2_font_get_glyph_data)
    i.u8g2_font_get_word                     0x0800175a   Section        0  u8g2_font.o(i.u8g2_font_get_word)
    u8g2_font_get_word                       0x0800175b   Thumb Code    20  u8g2_font.o(i.u8g2_font_get_word)
    i.u8g2_font_setup_decode                 0x0800176e   Section        0  u8g2_font.o(i.u8g2_font_setup_decode)
    u8g2_font_setup_decode                   0x0800176f   Thumb Code    52  u8g2_font.o(i.u8g2_font_setup_decode)
    i.u8g2_is_intersection_decision_tree     0x080017a2   Section        0  u8g2_intersection.o(i.u8g2_is_intersection_decision_tree)
    i.u8g2_ll_hvline_vertical_top_lsb        0x080017bc   Section        0  u8g2_ll_hvline.o(i.u8g2_ll_hvline_vertical_top_lsb)
    i.u8g2_m_16_8_f                          0x0800184c   Section        0  u8g2_d_memory.o(i.u8g2_m_16_8_f)
    i.u8g2_read_font_info                    0x08001858   Section        0  u8g2_font.o(i.u8g2_read_font_info)
    i.u8g2_send_buffer                       0x080018c2   Section        0  u8g2_buffer.o(i.u8g2_send_buffer)
    u8g2_send_buffer                         0x080018c3   Thumb Code    78  u8g2_buffer.o(i.u8g2_send_buffer)
    i.u8g2_update_dimension_common           0x08001910   Section        0  u8g2_setup.o(i.u8g2_update_dimension_common)
    u8g2_update_dimension_common             0x08001911   Thumb Code    70  u8g2_setup.o(i.u8g2_update_dimension_common)
    i.u8g2_update_dimension_r0               0x08001956   Section        0  u8g2_setup.o(i.u8g2_update_dimension_r0)
    i.u8g2_update_page_win_r0                0x0800195a   Section        0  u8g2_setup.o(i.u8g2_update_page_win_r0)
    i.u8x8_DrawTile                          0x0800197c   Section        0  u8x8_display.o(i.u8x8_DrawTile)
    i.u8x8_InitDisplay                       0x0800199a   Section        0  u8x8_display.o(i.u8x8_InitDisplay)
    i.u8x8_RefreshDisplay                    0x080019aa   Section        0  u8x8_display.o(i.u8x8_RefreshDisplay)
    i.u8x8_SetPowerSave                      0x080019ba   Section        0  u8x8_display.o(i.u8x8_SetPowerSave)
    i.u8x8_Setup                             0x080019ca   Section        0  u8x8_setup.o(i.u8x8_Setup)
    i.u8x8_SetupDefaults                     0x080019ec   Section        0  u8x8_setup.o(i.u8x8_SetupDefaults)
    i.u8x8_SetupMemory                       0x08001a10   Section        0  u8x8_display.o(i.u8x8_SetupMemory)
    i.u8x8_ascii_next                        0x08001a20   Section        0  u8x8_8x8.o(i.u8x8_ascii_next)
    i.u8x8_byte_SendByte                     0x08001a2e   Section        0  u8x8_byte.o(i.u8x8_byte_SendByte)
    i.u8x8_byte_SetDC                        0x08001a3c   Section        0  u8x8_byte.o(i.u8x8_byte_SetDC)
    i.u8x8_cad_001                           0x08001a4c   Section        0  u8x8_cad.o(i.u8x8_cad_001)
    i.u8x8_cad_EndTransfer                   0x08001a9e   Section        0  u8x8_cad.o(i.u8x8_cad_EndTransfer)
    i.u8x8_cad_SendArg                       0x08001aae   Section        0  u8x8_cad.o(i.u8x8_cad_SendArg)
    i.u8x8_cad_SendCmd                       0x08001abe   Section        0  u8x8_cad.o(i.u8x8_cad_SendCmd)
    i.u8x8_cad_SendData                      0x08001ace   Section        0  u8x8_cad.o(i.u8x8_cad_SendData)
    i.u8x8_cad_SendSequence                  0x08001ae0   Section        0  u8x8_cad.o(i.u8x8_cad_SendSequence)
    i.u8x8_cad_StartTransfer                 0x08001b48   Section        0  u8x8_cad.o(i.u8x8_cad_StartTransfer)
    i.u8x8_d_helper_display_init             0x08001b58   Section        0  u8x8_display.o(i.u8x8_d_helper_display_init)
    i.u8x8_d_helper_display_setup_memory     0x08001bb8   Section        0  u8x8_display.o(i.u8x8_d_helper_display_setup_memory)
    i.u8x8_d_ssd1306_128x64_noname           0x08001bc4   Section        0  u8x8_d_ssd1306_128x64_noname.o(i.u8x8_d_ssd1306_128x64_noname)
    i.u8x8_d_ssd1306_sh1106_generic          0x08001c00   Section        0  u8x8_d_ssd1306_128x64_noname.o(i.u8x8_d_ssd1306_sh1106_generic)
    u8x8_d_ssd1306_sh1106_generic            0x08001c01   Thumb Code   196  u8x8_d_ssd1306_128x64_noname.o(i.u8x8_d_ssd1306_sh1106_generic)
    i.u8x8_dummy_cb                          0x08001cc8   Section        0  u8x8_setup.o(i.u8x8_dummy_cb)
    i.u8x8_gpio_call                         0x08001ccc   Section        0  u8x8_gpio.o(i.u8x8_gpio_call)
    i.u8x8_utf8_init                         0x08001cd8   Section        0  u8x8_8x8.o(i.u8x8_utf8_init)
    i.userlib_u8g2_byte_4wire_hw_spi_callback 0x08001ce0   Section        0  userlib_u8g2_handle.o(i.userlib_u8g2_byte_4wire_hw_spi_callback)
    i.userlib_u8g2_gpio_and_delay_callback   0x08001d20   Section        0  userlib_u8g2_handle.o(i.userlib_u8g2_gpio_and_delay_callback)
    i.userlib_u8g2_init                      0x08001d4c   Section        0  userlib_u8g2_handle.o(i.userlib_u8g2_init)
    i.userlib_u8g2_nonos_handle              0x08001d88   Section        0  userlib_u8g2_handle.o(i.userlib_u8g2_nonos_handle)
    .constdata                               0x08001e8c   Section       16  system_stm32f1xx.o(.constdata)
    .constdata                               0x08001e9c   Section      512  userlib_u8g2_img_wjy.o(.constdata)
    .constdata                               0x0800209c   Section      512  userlib_u8g2_img_wjy.o(.constdata)
    .constdata                               0x0800229c   Section     4206  u8g2_fonts.o(.constdata)
    .constdata                               0x0800330c   Section       12  u8g2_setup.o(.constdata)
    .constdata                               0x08003318   Section      276  u8x8_d_ssd1306_128x64_noname.o(.constdata)
    u8x8_d_ssd1306_128x64_noname_powersave0_seq 0x08003318   Data           5  u8x8_d_ssd1306_128x64_noname.o(.constdata)
    u8x8_d_ssd1306_128x64_noname_powersave1_seq 0x0800331d   Data           5  u8x8_d_ssd1306_128x64_noname.o(.constdata)
    u8x8_d_ssd1306_128x64_noname_flip0_seq   0x08003322   Data           7  u8x8_d_ssd1306_128x64_noname.o(.constdata)
    u8x8_d_ssd1306_128x64_noname_flip1_seq   0x08003329   Data           7  u8x8_d_ssd1306_128x64_noname.o(.constdata)
    u8x8_d_ssd1306_128x64_noname_init_seq    0x08003330   Data          53  u8x8_d_ssd1306_128x64_noname.o(.constdata)
    u8x8_d_ssd1306_128x64_vcomh0_init_seq    0x08003365   Data          53  u8x8_d_ssd1306_128x64_noname.o(.constdata)
    u8x8_d_ssd1306_128x64_alt0_init_seq      0x0800339a   Data          53  u8x8_d_ssd1306_128x64_noname.o(.constdata)
    u8x8_d_sh1106_128x64_winstar_init_seq    0x080033cf   Data          45  u8x8_d_ssd1306_128x64_noname.o(.constdata)
    u8x8_ssd1306_128x64_noname_display_info  0x080033fc   Data          24  u8x8_d_ssd1306_128x64_noname.o(.constdata)
    u8x8_sh1106_128x64_noname_display_info   0x08003414   Data          24  u8x8_d_ssd1306_128x64_noname.o(.constdata)
    .data                                    0x20000000   Section       12  stm32f1xx_hal.o(.data)
    .data                                    0x2000000c   Section        4  system_stm32f1xx.o(.data)
    .bss                                     0x20000010   Section       88  spi.o(.bss)
    .bss                                     0x20000068   Section      148  userlib_u8g2_handle.o(.bss)
    .bss                                     0x200000fc   Section     1024  u8g2_d_memory.o(.bss)
    buf                                      0x200000fc   Data        1024  u8g2_d_memory.o(.bss)
    .bss                                     0x200004fc   Section       96  libspace.o(.bss)
    HEAP                                     0x20000560   Section      512  startup_stm32f103xb.o(HEAP)
    Heap_Mem                                 0x20000560   Data         512  startup_stm32f103xb.o(HEAP)
    STACK                                    0x20000760   Section     1024  startup_stm32f103xb.o(STACK)
    Stack_Mem                                0x20000760   Data        1024  startup_stm32f103xb.o(STACK)
    __initial_sp                             0x20000b60   Data           0  startup_stm32f103xb.o(STACK)

    Global Symbols

    Symbol Name                              Value     Ov Type        Size  Object(Section)

    BuildAttributes$$THM_ISAv4$P$D$K$B$S$PE$A:L22UL41UL21$X:L11$S22US41US21$IEEE1$IW$USESV6$~STKCKD$USESV7$~SHL$OTIME$ROPI$EBA8$UX$STANDARDLIB$REQ8$PRES8$EABIv2 0x00000000   Number         0  anon$$obj.o ABSOLUTE
    __ARM_use_no_argv                        0x00000000   Number         0  main.o ABSOLUTE
    __ARM_exceptions_init                     - Undefined Weak Reference
    __alloca_initialize                       - Undefined Weak Reference
    __arm_preinit_                            - Undefined Weak Reference
    __cpp_initialize__aeabi_                  - Undefined Weak Reference
    __cxa_finalize                            - Undefined Weak Reference
    __rt_locale                               - Undefined Weak Reference
    __sigvec_lookup                           - Undefined Weak Reference
    __user_heap_extent                        - Undefined Weak Reference
    _atexit_init                              - Undefined Weak Reference
    _call_atexit_fns                          - Undefined Weak Reference
    _clock_init                               - Undefined Weak Reference
    _fp_trap_init                             - Undefined Weak Reference
    _fp_trap_shutdown                         - Undefined Weak Reference
    _get_lc_collate                           - Undefined Weak Reference
    _get_lc_ctype                             - Undefined Weak Reference
    _get_lc_monetary                          - Undefined Weak Reference
    _get_lc_numeric                           - Undefined Weak Reference
    _get_lc_time                              - Undefined Weak Reference
    _getenv_init                              - Undefined Weak Reference
    _handle_redirection                       - Undefined Weak Reference
    _mutex_acquire                            - Undefined Weak Reference
    _mutex_free                               - Undefined Weak Reference
    _mutex_release                            - Undefined Weak Reference
    _rand_init                                - Undefined Weak Reference
    _signal_finish                            - Undefined Weak Reference
    _signal_init                              - Undefined Weak Reference
    __Vectors_Size                           0x000000ec   Number         0  startup_stm32f103xb.o ABSOLUTE
    __Vectors                                0x08000000   Data           4  startup_stm32f103xb.o(RESET)
    __Vectors_End                            0x080000ec   Data           0  startup_stm32f103xb.o(RESET)
    __main                                   0x080000ed   Thumb Code     8  __main.o(!!!main)
    __scatterload                            0x080000f5   Thumb Code     0  __scatter.o(!!!scatter)
    __scatterload_rt2                        0x080000f5   Thumb Code    44  __scatter.o(!!!scatter)
    __scatterload_rt2_thumb_only             0x080000f5   Thumb Code     0  __scatter.o(!!!scatter)
    __scatterload_null                       0x08000103   Thumb Code     0  __scatter.o(!!!scatter)
    __scatterload_copy                       0x08000129   Thumb Code    26  __scatter_copy.o(!!handler_copy)
    __scatterload_zeroinit                   0x08000145   Thumb Code    28  __scatter_zi.o(!!handler_zi)
    __rt_lib_init                            0x08000161   Thumb Code     0  libinit.o(.ARM.Collect$$libinit$$00000000)
    __rt_lib_init_alloca_1                   0x08000163   Thumb Code     0  libinit2.o(.ARM.Collect$$libinit$$0000002E)
    __rt_lib_init_argv_1                     0x08000163   Thumb Code     0  libinit2.o(.ARM.Collect$$libinit$$0000002C)
    __rt_lib_init_atexit_1                   0x08000163   Thumb Code     0  libinit2.o(.ARM.Collect$$libinit$$0000001B)
    __rt_lib_init_clock_1                    0x08000163   Thumb Code     0  libinit2.o(.ARM.Collect$$libinit$$00000021)
    __rt_lib_init_cpp_1                      0x08000163   Thumb Code     0  libinit2.o(.ARM.Collect$$libinit$$00000032)
    __rt_lib_init_exceptions_1               0x08000163   Thumb Code     0  libinit2.o(.ARM.Collect$$libinit$$00000030)
    __rt_lib_init_fp_1                       0x08000163   Thumb Code     0  libinit2.o(.ARM.Collect$$libinit$$00000002)
    __rt_lib_init_fp_trap_1                  0x08000163   Thumb Code     0  libinit2.o(.ARM.Collect$$libinit$$0000001F)
    __rt_lib_init_getenv_1                   0x08000163   Thumb Code     0  libinit2.o(.ARM.Collect$$libinit$$00000023)
    __rt_lib_init_heap_1                     0x08000163   Thumb Code     0  libinit2.o(.ARM.Collect$$libinit$$0000000A)
    __rt_lib_init_lc_collate_1               0x08000163   Thumb Code     0  libinit2.o(.ARM.Collect$$libinit$$00000011)
    __rt_lib_init_lc_ctype_1                 0x08000163   Thumb Code     0  libinit2.o(.ARM.Collect$$libinit$$00000013)
    __rt_lib_init_lc_monetary_1              0x08000163   Thumb Code     0  libinit2.o(.ARM.Collect$$libinit$$00000015)
    __rt_lib_init_lc_numeric_1               0x08000163   Thumb Code     0  libinit2.o(.ARM.Collect$$libinit$$00000017)
    __rt_lib_init_lc_time_1                  0x08000163   Thumb Code     0  libinit2.o(.ARM.Collect$$libinit$$00000019)
    __rt_lib_init_preinit_1                  0x08000163   Thumb Code     0  libinit2.o(.ARM.Collect$$libinit$$00000004)
    __rt_lib_init_rand_1                     0x08000163   Thumb Code     0  libinit2.o(.ARM.Collect$$libinit$$0000000E)
    __rt_lib_init_return                     0x08000163   Thumb Code     0  libinit2.o(.ARM.Collect$$libinit$$00000033)
    __rt_lib_init_signal_1                   0x08000163   Thumb Code     0  libinit2.o(.ARM.Collect$$libinit$$0000001D)
    __rt_lib_init_stdio_1                    0x08000163   Thumb Code     0  libinit2.o(.ARM.Collect$$libinit$$00000025)
    __rt_lib_init_user_alloc_1               0x08000163   Thumb Code     0  libinit2.o(.ARM.Collect$$libinit$$0000000C)
    __rt_lib_shutdown                        0x08000165   Thumb Code     0  libshutdown.o(.ARM.Collect$$libshutdown$$00000000)
    __rt_lib_shutdown_cpp_1                  0x08000167   Thumb Code     0  libshutdown2.o(.ARM.Collect$$libshutdown$$00000002)
    __rt_lib_shutdown_fp_trap_1              0x08000167   Thumb Code     0  libshutdown2.o(.ARM.Collect$$libshutdown$$00000007)
    __rt_lib_shutdown_heap_1                 0x08000167   Thumb Code     0  libshutdown2.o(.ARM.Collect$$libshutdown$$0000000F)
    __rt_lib_shutdown_return                 0x08000167   Thumb Code     0  libshutdown2.o(.ARM.Collect$$libshutdown$$00000010)
    __rt_lib_shutdown_signal_1               0x08000167   Thumb Code     0  libshutdown2.o(.ARM.Collect$$libshutdown$$0000000A)
    __rt_lib_shutdown_stdio_1                0x08000167   Thumb Code     0  libshutdown2.o(.ARM.Collect$$libshutdown$$00000004)
    __rt_lib_shutdown_user_alloc_1           0x08000167   Thumb Code     0  libshutdown2.o(.ARM.Collect$$libshutdown$$0000000C)
    __rt_entry                               0x08000169   Thumb Code     0  __rtentry.o(.ARM.Collect$$rtentry$$00000000)
    __rt_entry_presh_1                       0x08000169   Thumb Code     0  __rtentry2.o(.ARM.Collect$$rtentry$$00000002)
    __rt_entry_sh                            0x08000169   Thumb Code     0  __rtentry4.o(.ARM.Collect$$rtentry$$00000004)
    __rt_entry_li                            0x0800016f   Thumb Code     0  __rtentry2.o(.ARM.Collect$$rtentry$$0000000A)
    __rt_entry_postsh_1                      0x0800016f   Thumb Code     0  __rtentry2.o(.ARM.Collect$$rtentry$$00000009)
    __rt_entry_main                          0x08000173   Thumb Code     0  __rtentry2.o(.ARM.Collect$$rtentry$$0000000D)
    __rt_entry_postli_1                      0x08000173   Thumb Code     0  __rtentry2.o(.ARM.Collect$$rtentry$$0000000C)
    __rt_exit                                0x0800017b   Thumb Code     0  rtexit.o(.ARM.Collect$$rtexit$$00000000)
    __rt_exit_ls                             0x0800017d   Thumb Code     0  rtexit2.o(.ARM.Collect$$rtexit$$00000003)
    __rt_exit_prels_1                        0x0800017d   Thumb Code     0  rtexit2.o(.ARM.Collect$$rtexit$$00000002)
    __rt_exit_exit                           0x08000181   Thumb Code     0  rtexit2.o(.ARM.Collect$$rtexit$$00000004)
    Reset_Handler                            0x08000189   Thumb Code     8  startup_stm32f103xb.o(.text)
    ADC1_2_IRQHandler                        0x080001a3   Thumb Code     0  startup_stm32f103xb.o(.text)
    CAN1_RX1_IRQHandler                      0x080001a3   Thumb Code     0  startup_stm32f103xb.o(.text)
    CAN1_SCE_IRQHandler                      0x080001a3   Thumb Code     0  startup_stm32f103xb.o(.text)
    DMA1_Channel1_IRQHandler                 0x080001a3   Thumb Code     0  startup_stm32f103xb.o(.text)
    DMA1_Channel2_IRQHandler                 0x080001a3   Thumb Code     0  startup_stm32f103xb.o(.text)
    DMA1_Channel3_IRQHandler                 0x080001a3   Thumb Code     0  startup_stm32f103xb.o(.text)
    DMA1_Channel4_IRQHandler                 0x080001a3   Thumb Code     0  startup_stm32f103xb.o(.text)
    DMA1_Channel5_IRQHandler                 0x080001a3   Thumb Code     0  startup_stm32f103xb.o(.text)
    DMA1_Channel6_IRQHandler                 0x080001a3   Thumb Code     0  startup_stm32f103xb.o(.text)
    DMA1_Channel7_IRQHandler                 0x080001a3   Thumb Code     0  startup_stm32f103xb.o(.text)
    EXTI0_IRQHandler                         0x080001a3   Thumb Code     0  startup_stm32f103xb.o(.text)
    EXTI15_10_IRQHandler                     0x080001a3   Thumb Code     0  startup_stm32f103xb.o(.text)
    EXTI1_IRQHandler                         0x080001a3   Thumb Code     0  startup_stm32f103xb.o(.text)
    EXTI2_IRQHandler                         0x080001a3   Thumb Code     0  startup_stm32f103xb.o(.text)
    EXTI3_IRQHandler                         0x080001a3   Thumb Code     0  startup_stm32f103xb.o(.text)
    EXTI4_IRQHandler                         0x080001a3   Thumb Code     0  startup_stm32f103xb.o(.text)
    EXTI9_5_IRQHandler                       0x080001a3   Thumb Code     0  startup_stm32f103xb.o(.text)
    FLASH_IRQHandler                         0x080001a3   Thumb Code     0  startup_stm32f103xb.o(.text)
    I2C1_ER_IRQHandler                       0x080001a3   Thumb Code     0  startup_stm32f103xb.o(.text)
    I2C1_EV_IRQHandler                       0x080001a3   Thumb Code     0  startup_stm32f103xb.o(.text)
    I2C2_ER_IRQHandler                       0x080001a3   Thumb Code     0  startup_stm32f103xb.o(.text)
    I2C2_EV_IRQHandler                       0x080001a3   Thumb Code     0  startup_stm32f103xb.o(.text)
    PVD_IRQHandler                           0x080001a3   Thumb Code     0  startup_stm32f103xb.o(.text)
    RCC_IRQHandler                           0x080001a3   Thumb Code     0  startup_stm32f103xb.o(.text)
    RTC_Alarm_IRQHandler                     0x080001a3   Thumb Code     0  startup_stm32f103xb.o(.text)
    RTC_IRQHandler                           0x080001a3   Thumb Code     0  startup_stm32f103xb.o(.text)
    SPI1_IRQHandler                          0x080001a3   Thumb Code     0  startup_stm32f103xb.o(.text)
    SPI2_IRQHandler                          0x080001a3   Thumb Code     0  startup_stm32f103xb.o(.text)
    TAMPER_IRQHandler                        0x080001a3   Thumb Code     0  startup_stm32f103xb.o(.text)
    TIM1_BRK_IRQHandler                      0x080001a3   Thumb Code     0  startup_stm32f103xb.o(.text)
    TIM1_CC_IRQHandler                       0x080001a3   Thumb Code     0  startup_stm32f103xb.o(.text)
    TIM1_TRG_COM_IRQHandler                  0x080001a3   Thumb Code     0  startup_stm32f103xb.o(.text)
    TIM1_UP_IRQHandler                       0x080001a3   Thumb Code     0  startup_stm32f103xb.o(.text)
    TIM2_IRQHandler                          0x080001a3   Thumb Code     0  startup_stm32f103xb.o(.text)
    TIM3_IRQHandler                          0x080001a3   Thumb Code     0  startup_stm32f103xb.o(.text)
    TIM4_IRQHandler                          0x080001a3   Thumb Code     0  startup_stm32f103xb.o(.text)
    USART1_IRQHandler                        0x080001a3   Thumb Code     0  startup_stm32f103xb.o(.text)
    USART2_IRQHandler                        0x080001a3   Thumb Code     0  startup_stm32f103xb.o(.text)
    USART3_IRQHandler                        0x080001a3   Thumb Code     0  startup_stm32f103xb.o(.text)
    USBWakeUp_IRQHandler                     0x080001a3   Thumb Code     0  startup_stm32f103xb.o(.text)
    USB_HP_CAN1_TX_IRQHandler                0x080001a3   Thumb Code     0  startup_stm32f103xb.o(.text)
    USB_LP_CAN1_RX0_IRQHandler               0x080001a3   Thumb Code     0  startup_stm32f103xb.o(.text)
    WWDG_IRQHandler                          0x080001a3   Thumb Code     0  startup_stm32f103xb.o(.text)
    __user_initial_stackheap                 0x080001a5   Thumb Code     0  startup_stm32f103xb.o(.text)
    __aeabi_memclr                           0x080001c9   Thumb Code     0  rt_memclr.o(.text)
    __rt_memclr                              0x080001c9   Thumb Code    68  rt_memclr.o(.text)
    _memset                                  0x080001cd   Thumb Code     0  rt_memclr.o(.text)
    __aeabi_memclr4                          0x0800020d   Thumb Code     0  rt_memclr_w.o(.text)
    __aeabi_memclr8                          0x0800020d   Thumb Code     0  rt_memclr_w.o(.text)
    __rt_memclr_w                            0x0800020d   Thumb Code    78  rt_memclr_w.o(.text)
    _memset_w                                0x08000211   Thumb Code     0  rt_memclr_w.o(.text)
    __use_two_region_memory                  0x0800025b   Thumb Code     2  heapauxi.o(.text)
    __rt_heap_escrow                         0x0800025d   Thumb Code     2  heapauxi.o(.text)
    __rt_heap_expand                         0x0800025f   Thumb Code     2  heapauxi.o(.text)
    __user_setup_stackheap                   0x08000261   Thumb Code    74  sys_stackheap_outer.o(.text)
    exit                                     0x080002ab   Thumb Code    18  exit.o(.text)
    __user_libspace                          0x080002bd   Thumb Code     8  libspace.o(.text)
    __user_perproc_libspace                  0x080002bd   Thumb Code     0  libspace.o(.text)
    __user_perthread_libspace                0x080002bd   Thumb Code     0  libspace.o(.text)
    __I$use$semihosting                      0x080002c5   Thumb Code     0  use_no_semi.o(.text)
    __use_no_semihosting_swi                 0x080002c5   Thumb Code     2  use_no_semi.o(.text)
    __semihosting_library_function           0x080002c7   Thumb Code     0  indicate_semi.o(.text)
    _sys_exit                                0x080002c9   Thumb Code     8  sys_exit.o(.text)
    BusFault_Handler                         0x080002d5   Thumb Code     2  stm32f1xx_it.o(i.BusFault_Handler)
    DebugMon_Handler                         0x080002d7   Thumb Code     2  stm32f1xx_it.o(i.DebugMon_Handler)
    Error_Handler                            0x080002d9   Thumb Code     4  main.o(i.Error_Handler)
    HAL_Delay                                0x080002dd   Thumb Code    32  stm32f1xx_hal.o(i.HAL_Delay)
    HAL_GPIO_Init                            0x08000301   Thumb Code   446  stm32f1xx_hal_gpio.o(i.HAL_GPIO_Init)
    HAL_GPIO_WritePin                        0x080004e1   Thumb Code    10  stm32f1xx_hal_gpio.o(i.HAL_GPIO_WritePin)
    HAL_GetTick                              0x080004ed   Thumb Code     6  stm32f1xx_hal.o(i.HAL_GetTick)
    HAL_IncTick                              0x080004f9   Thumb Code    12  stm32f1xx_hal.o(i.HAL_IncTick)
    HAL_Init                                 0x08000509   Thumb Code    32  stm32f1xx_hal.o(i.HAL_Init)
    HAL_InitTick                             0x0800052d   Thumb Code    54  stm32f1xx_hal.o(i.HAL_InitTick)
    HAL_MspInit                              0x0800056d   Thumb Code    52  stm32f1xx_hal_msp.o(i.HAL_MspInit)
    HAL_NVIC_SetPriority                     0x080005a9   Thumb Code    60  stm32f1xx_hal_cortex.o(i.HAL_NVIC_SetPriority)
    HAL_NVIC_SetPriorityGrouping             0x080005e9   Thumb Code    26  stm32f1xx_hal_cortex.o(i.HAL_NVIC_SetPriorityGrouping)
    HAL_RCC_ClockConfig                      0x0800060d   Thumb Code   280  stm32f1xx_hal_rcc.o(i.HAL_RCC_ClockConfig)
    HAL_RCC_GetSysClockFreq                  0x08000739   Thumb Code    74  stm32f1xx_hal_rcc.o(i.HAL_RCC_GetSysClockFreq)
    HAL_RCC_OscConfig                        0x080007a5   Thumb Code   778  stm32f1xx_hal_rcc.o(i.HAL_RCC_OscConfig)
    HAL_SPI_Init                             0x08000ac5   Thumb Code   178  stm32f1xx_hal_spi.o(i.HAL_SPI_Init)
    HAL_SPI_MspInit                          0x08000b79   Thumb Code    80  spi.o(i.HAL_SPI_MspInit)
    HAL_SPI_Transmit                         0x08000bd5   Thumb Code   358  stm32f1xx_hal_spi.o(i.HAL_SPI_Transmit)
    HAL_SYSTICK_Config                       0x08000d3b   Thumb Code    40  stm32f1xx_hal_cortex.o(i.HAL_SYSTICK_Config)
    HardFault_Handler                        0x08000d63   Thumb Code     2  stm32f1xx_it.o(i.HardFault_Handler)
    MX_GPIO_Init                             0x08000d65   Thumb Code   150  gpio.o(i.MX_GPIO_Init)
    MX_SPI1_Init                             0x08000e09   Thumb Code    60  spi.o(i.MX_SPI1_Init)
    MemManage_Handler                        0x08000e4d   Thumb Code     2  stm32f1xx_it.o(i.MemManage_Handler)
    NMI_Handler                              0x08000e4f   Thumb Code     2  stm32f1xx_it.o(i.NMI_Handler)
    PendSV_Handler                           0x08000e51   Thumb Code     2  stm32f1xx_it.o(i.PendSV_Handler)
    SVC_Handler                              0x08000f2d   Thumb Code     2  stm32f1xx_it.o(i.SVC_Handler)
    SysTick_Handler                          0x08000f2f   Thumb Code     4  stm32f1xx_it.o(i.SysTick_Handler)
    SystemClock_Config                       0x08000f33   Thumb Code    94  main.o(i.SystemClock_Config)
    SystemInit                               0x08000f91   Thumb Code     2  system_stm32f1xx.o(i.SystemInit)
    UsageFault_Handler                       0x08000f93   Thumb Code     2  stm32f1xx_it.o(i.UsageFault_Handler)
    ledb_off                                 0x08000fb5   Thumb Code    10  ledb_handle.o(i.ledb_off)
    ledb_on                                  0x08000fc5   Thumb Code    12  ledb_handle.o(i.ledb_on)
    ledb_test                                0x08000fd5   Thumb Code    32  ledb_handle.o(i.ledb_test)
    main                                     0x08000ff5   Thumb Code    26  main.o(i.main)
    u8g2_ClearBuffer                         0x0800100f   Thumb Code    18  u8g2_buffer.o(i.u8g2_ClearBuffer)
    u8g2_DrawGlyph                           0x08001021   Thumb Code   112  u8g2_font.o(i.u8g2_DrawGlyph)
    u8g2_DrawHVLine                          0x08001091   Thumb Code   172  u8g2_hvline.o(i.u8g2_DrawHVLine)
    u8g2_DrawHXBMP                           0x0800113d   Thumb Code   148  u8g2_bitmap.o(i.u8g2_DrawHXBMP)
    u8g2_DrawStr                             0x080011d1   Thumb Code    12  u8g2_font.o(i.u8g2_DrawStr)
    u8g2_DrawXBMP                            0x080011e1   Thumb Code    76  u8g2_bitmap.o(i.u8g2_DrawXBMP)
    u8g2_IsIntersection                      0x0800122d   Thumb Code    48  u8g2_intersection.o(i.u8g2_IsIntersection)
    u8g2_SendBuffer                          0x0800125d   Thumb Code    18  u8g2_buffer.o(i.u8g2_SendBuffer)
    u8g2_SetFont                             0x0800126f   Thumb Code    32  u8g2_font.o(i.u8g2_SetFont)
    u8g2_SetFontPosBaseline                  0x08001291   Thumb Code     6  u8g2_font.o(i.u8g2_SetFontPosBaseline)
    u8g2_SetMaxClipWindow                    0x0800129d   Thumb Code    28  u8g2_setup.o(i.u8g2_SetMaxClipWindow)
    u8g2_SetupBuffer                         0x080012b9   Thumb Code    66  u8g2_setup.o(i.u8g2_SetupBuffer)
    u8g2_Setup_ssd1306_128x64_noname_f       0x080012fd   Thumb Code    42  u8g2_d_setup.o(i.u8g2_Setup_ssd1306_128x64_noname_f)
    u8g2_UpdateRefHeight                     0x08001335   Thumb Code    82  u8g2_font.o(i.u8g2_UpdateRefHeight)
    u8g2_add_vector_x                        0x08001387   Thumb Code    28  u8g2_font.o(i.u8g2_add_vector_x)
    u8g2_add_vector_y                        0x080013a3   Thumb Code    28  u8g2_font.o(i.u8g2_add_vector_y)
    u8g2_draw_hv_line_2dir                   0x08001469   Thumb Code    18  u8g2_hvline.o(i.u8g2_draw_hv_line_2dir)
    u8g2_draw_l90_r0                         0x0800147b   Thumb Code    12  u8g2_setup.o(i.u8g2_draw_l90_r0)
    u8g2_font_calc_vref_font                 0x080014fd   Thumb Code     4  u8g2_font.o(i.u8g2_font_calc_vref_font)
    u8g2_font_decode_get_signed_bits         0x08001501   Thumb Code    20  u8g2_font.o(i.u8g2_font_decode_get_signed_bits)
    u8g2_font_decode_get_unsigned_bits       0x08001515   Thumb Code    52  u8g2_font.o(i.u8g2_font_decode_get_unsigned_bits)
    u8g2_font_decode_glyph                   0x08001549   Thumb Code   276  u8g2_font.o(i.u8g2_font_decode_glyph)
    u8g2_font_decode_len                     0x0800165d   Thumb Code   140  u8g2_font.o(i.u8g2_font_decode_len)
    u8g2_font_get_glyph_data                 0x080016e9   Thumb Code   114  u8g2_font.o(i.u8g2_font_get_glyph_data)
    u8g2_is_intersection_decision_tree       0x080017a3   Thumb Code    24  u8g2_intersection.o(i.u8g2_is_intersection_decision_tree)
    u8g2_ll_hvline_vertical_top_lsb          0x080017bd   Thumb Code   144  u8g2_ll_hvline.o(i.u8g2_ll_hvline_vertical_top_lsb)
    u8g2_m_16_8_f                            0x0800184d   Thumb Code     8  u8g2_d_memory.o(i.u8g2_m_16_8_f)
    u8g2_read_font_info                      0x08001859   Thumb Code   106  u8g2_font.o(i.u8g2_read_font_info)
    u8g2_update_dimension_r0                 0x08001957   Thumb Code     4  u8g2_setup.o(i.u8g2_update_dimension_r0)
    u8g2_update_page_win_r0                  0x0800195b   Thumb Code    34  u8g2_setup.o(i.u8g2_update_page_win_r0)
    u8x8_DrawTile                            0x0800197d   Thumb Code    30  u8x8_display.o(i.u8x8_DrawTile)
    u8x8_InitDisplay                         0x0800199b   Thumb Code    16  u8x8_display.o(i.u8x8_InitDisplay)
    u8x8_RefreshDisplay                      0x080019ab   Thumb Code    16  u8x8_display.o(i.u8x8_RefreshDisplay)
    u8x8_SetPowerSave                        0x080019bb   Thumb Code    16  u8x8_display.o(i.u8x8_SetPowerSave)
    u8x8_Setup                               0x080019cb   Thumb Code    34  u8x8_setup.o(i.u8x8_Setup)
    u8x8_SetupDefaults                       0x080019ed   Thumb Code    32  u8x8_setup.o(i.u8x8_SetupDefaults)
    u8x8_SetupMemory                         0x08001a11   Thumb Code    16  u8x8_display.o(i.u8x8_SetupMemory)
    u8x8_ascii_next                          0x08001a21   Thumb Code    14  u8x8_8x8.o(i.u8x8_ascii_next)
    u8x8_byte_SendByte                       0x08001a2f   Thumb Code    14  u8x8_byte.o(i.u8x8_byte_SendByte)
    u8x8_byte_SetDC                          0x08001a3d   Thumb Code    16  u8x8_byte.o(i.u8x8_byte_SetDC)
    u8x8_cad_001                             0x08001a4d   Thumb Code    82  u8x8_cad.o(i.u8x8_cad_001)
    u8x8_cad_EndTransfer                     0x08001a9f   Thumb Code    16  u8x8_cad.o(i.u8x8_cad_EndTransfer)
    u8x8_cad_SendArg                         0x08001aaf   Thumb Code    16  u8x8_cad.o(i.u8x8_cad_SendArg)
    u8x8_cad_SendCmd                         0x08001abf   Thumb Code    16  u8x8_cad.o(i.u8x8_cad_SendCmd)
    u8x8_cad_SendData                        0x08001acf   Thumb Code    16  u8x8_cad.o(i.u8x8_cad_SendData)
    u8x8_cad_SendSequence                    0x08001ae1   Thumb Code   104  u8x8_cad.o(i.u8x8_cad_SendSequence)
    u8x8_cad_StartTransfer                   0x08001b49   Thumb Code    16  u8x8_cad.o(i.u8x8_cad_StartTransfer)
    u8x8_d_helper_display_init               0x08001b59   Thumb Code    96  u8x8_display.o(i.u8x8_d_helper_display_init)
    u8x8_d_helper_display_setup_memory       0x08001bb9   Thumb Code    10  u8x8_display.o(i.u8x8_d_helper_display_setup_memory)
    u8x8_d_ssd1306_128x64_noname             0x08001bc5   Thumb Code    54  u8x8_d_ssd1306_128x64_noname.o(i.u8x8_d_ssd1306_128x64_noname)
    u8x8_dummy_cb                            0x08001cc9   Thumb Code     4  u8x8_setup.o(i.u8x8_dummy_cb)
    u8x8_gpio_call                           0x08001ccd   Thumb Code    12  u8x8_gpio.o(i.u8x8_gpio_call)
    u8x8_utf8_init                           0x08001cd9   Thumb Code     8  u8x8_8x8.o(i.u8x8_utf8_init)
    userlib_u8g2_byte_4wire_hw_spi_callback  0x08001ce1   Thumb Code    56  userlib_u8g2_handle.o(i.userlib_u8g2_byte_4wire_hw_spi_callback)
    userlib_u8g2_gpio_and_delay_callback     0x08001d21   Thumb Code    40  userlib_u8g2_handle.o(i.userlib_u8g2_gpio_and_delay_callback)
    userlib_u8g2_init                        0x08001d4d   Thumb Code    44  userlib_u8g2_handle.o(i.userlib_u8g2_init)
    userlib_u8g2_nonos_handle                0x08001d89   Thumb Code   240  userlib_u8g2_handle.o(i.userlib_u8g2_nonos_handle)
    AHBPrescTable                            0x08001e8c   Data          16  system_stm32f1xx.o(.constdata)
    img_wjy_01                               0x08001e9c   Data         512  userlib_u8g2_img_wjy.o(.constdata)
    img_wjy_02                               0x0800209c   Data         512  userlib_u8g2_img_wjy.o(.constdata)
    u8g2_font_10x20_mf                       0x0800229c   Data        4206  u8g2_fonts.o(.constdata)
    u8g2_cb_r0                               0x0800330c   Data          12  u8g2_setup.o(.constdata)
    Region$$Table$$Base                      0x0800342c   Number         0  anon$$obj.o(Region$$Table)
    Region$$Table$$Limit                     0x0800344c   Number         0  anon$$obj.o(Region$$Table)
    uwTickFreq                               0x20000000   Data           1  stm32f1xx_hal.o(.data)
    uwTickPrio                               0x20000004   Data           4  stm32f1xx_hal.o(.data)
    uwTick                                   0x20000008   Data           4  stm32f1xx_hal.o(.data)
    SystemCoreClock                          0x2000000c   Data           4  system_stm32f1xx.o(.data)
    hspi1                                    0x20000010   Data          88  spi.o(.bss)
    g_u8g2                                   0x20000068   Data         148  userlib_u8g2_handle.o(.bss)
    __libspace_start                         0x200004fc   Data          96  libspace.o(.bss)
    __temporary_stack_top$libspace           0x2000055c   Data           0  libspace.o(.bss)



==============================================================================

Memory Map of the image

  Image Entry point : 0x080000ed

  Load Region LR_IROM1 (Base: 0x08000000, Size: 0x0000345c, Max: 0x00010000, ABSOLUTE)

    Execution Region ER_IROM1 (Exec base: 0x08000000, Load base: 0x08000000, Size: 0x0000344c, Max: 0x00010000, ABSOLUTE)

    Exec Addr    Load Addr    Size         Type   Attr      Idx    E Section Name        Object

    0x08000000   0x08000000   0x000000ec   Data   RO            3    RESET               startup_stm32f103xb.o
    0x080000ec   0x080000ec   0x00000008   Code   RO         8262  * !!!main             c_w.l(__main.o)
    0x080000f4   0x080000f4   0x00000034   Code   RO         8608    !!!scatter          c_w.l(__scatter.o)
    0x08000128   0x08000128   0x0000001a   Code   RO         8610    !!handler_copy      c_w.l(__scatter_copy.o)
    0x08000142   0x08000142   0x00000002   PAD
    0x08000144   0x08000144   0x0000001c   Code   RO         8612    !!handler_zi        c_w.l(__scatter_zi.o)
    0x08000160   0x08000160   0x00000002   Code   RO         8395    .ARM.Collect$$libinit$$00000000  c_w.l(libinit.o)
    0x08000162   0x08000162   0x00000000   Code   RO         8397    .ARM.Collect$$libinit$$00000002  c_w.l(libinit2.o)
    0x08000162   0x08000162   0x00000000   Code   RO         8399    .ARM.Collect$$libinit$$00000004  c_w.l(libinit2.o)
    0x08000162   0x08000162   0x00000000   Code   RO         8402    .ARM.Collect$$libinit$$0000000A  c_w.l(libinit2.o)
    0x08000162   0x08000162   0x00000000   Code   RO         8404    .ARM.Collect$$libinit$$0000000C  c_w.l(libinit2.o)
    0x08000162   0x08000162   0x00000000   Code   RO         8406    .ARM.Collect$$libinit$$0000000E  c_w.l(libinit2.o)
    0x08000162   0x08000162   0x00000000   Code   RO         8409    .ARM.Collect$$libinit$$00000011  c_w.l(libinit2.o)
    0x08000162   0x08000162   0x00000000   Code   RO         8411    .ARM.Collect$$libinit$$00000013  c_w.l(libinit2.o)
    0x08000162   0x08000162   0x00000000   Code   RO         8413    .ARM.Collect$$libinit$$00000015  c_w.l(libinit2.o)
    0x08000162   0x08000162   0x00000000   Code   RO         8415    .ARM.Collect$$libinit$$00000017  c_w.l(libinit2.o)
    0x08000162   0x08000162   0x00000000   Code   RO         8417    .ARM.Collect$$libinit$$00000019  c_w.l(libinit2.o)
    0x08000162   0x08000162   0x00000000   Code   RO         8419    .ARM.Collect$$libinit$$0000001B  c_w.l(libinit2.o)
    0x08000162   0x08000162   0x00000000   Code   RO         8421    .ARM.Collect$$libinit$$0000001D  c_w.l(libinit2.o)
    0x08000162   0x08000162   0x00000000   Code   RO         8423    .ARM.Collect$$libinit$$0000001F  c_w.l(libinit2.o)
    0x08000162   0x08000162   0x00000000   Code   RO         8425    .ARM.Collect$$libinit$$00000021  c_w.l(libinit2.o)
    0x08000162   0x08000162   0x00000000   Code   RO         8427    .ARM.Collect$$libinit$$00000023  c_w.l(libinit2.o)
    0x08000162   0x08000162   0x00000000   Code   RO         8429    .ARM.Collect$$libinit$$00000025  c_w.l(libinit2.o)
    0x08000162   0x08000162   0x00000000   Code   RO         8433    .ARM.Collect$$libinit$$0000002C  c_w.l(libinit2.o)
    0x08000162   0x08000162   0x00000000   Code   RO         8435    .ARM.Collect$$libinit$$0000002E  c_w.l(libinit2.o)
    0x08000162   0x08000162   0x00000000   Code   RO         8437    .ARM.Collect$$libinit$$00000030  c_w.l(libinit2.o)
    0x08000162   0x08000162   0x00000000   Code   RO         8439    .ARM.Collect$$libinit$$00000032  c_w.l(libinit2.o)
    0x08000162   0x08000162   0x00000002   Code   RO         8440    .ARM.Collect$$libinit$$00000033  c_w.l(libinit2.o)
    0x08000164   0x08000164   0x00000002   Code   RO         8587    .ARM.Collect$$libshutdown$$00000000  c_w.l(libshutdown.o)
    0x08000166   0x08000166   0x00000000   Code   RO         8442    .ARM.Collect$$libshutdown$$00000002  c_w.l(libshutdown2.o)
    0x08000166   0x08000166   0x00000000   Code   RO         8444    .ARM.Collect$$libshutdown$$00000004  c_w.l(libshutdown2.o)
    0x08000166   0x08000166   0x00000000   Code   RO         8447    .ARM.Collect$$libshutdown$$00000007  c_w.l(libshutdown2.o)
    0x08000166   0x08000166   0x00000000   Code   RO         8450    .ARM.Collect$$libshutdown$$0000000A  c_w.l(libshutdown2.o)
    0x08000166   0x08000166   0x00000000   Code   RO         8452    .ARM.Collect$$libshutdown$$0000000C  c_w.l(libshutdown2.o)
    0x08000166   0x08000166   0x00000000   Code   RO         8455    .ARM.Collect$$libshutdown$$0000000F  c_w.l(libshutdown2.o)
    0x08000166   0x08000166   0x00000002   Code   RO         8456    .ARM.Collect$$libshutdown$$00000010  c_w.l(libshutdown2.o)
    0x08000168   0x08000168   0x00000000   Code   RO         8264    .ARM.Collect$$rtentry$$00000000  c_w.l(__rtentry.o)
    0x08000168   0x08000168   0x00000000   Code   RO         8274    .ARM.Collect$$rtentry$$00000002  c_w.l(__rtentry2.o)
    0x08000168   0x08000168   0x00000006   Code   RO         8286    .ARM.Collect$$rtentry$$00000004  c_w.l(__rtentry4.o)
    0x0800016e   0x0800016e   0x00000000   Code   RO         8276    .ARM.Collect$$rtentry$$00000009  c_w.l(__rtentry2.o)
    0x0800016e   0x0800016e   0x00000004   Code   RO         8277    .ARM.Collect$$rtentry$$0000000A  c_w.l(__rtentry2.o)
    0x08000172   0x08000172   0x00000000   Code   RO         8279    .ARM.Collect$$rtentry$$0000000C  c_w.l(__rtentry2.o)
    0x08000172   0x08000172   0x00000008   Code   RO         8280    .ARM.Collect$$rtentry$$0000000D  c_w.l(__rtentry2.o)
    0x0800017a   0x0800017a   0x00000002   Code   RO         8465    .ARM.Collect$$rtexit$$00000000  c_w.l(rtexit.o)
    0x0800017c   0x0800017c   0x00000000   Code   RO         8523    .ARM.Collect$$rtexit$$00000002  c_w.l(rtexit2.o)
    0x0800017c   0x0800017c   0x00000004   Code   RO         8524    .ARM.Collect$$rtexit$$00000003  c_w.l(rtexit2.o)
    0x08000180   0x08000180   0x00000006   Code   RO         8525    .ARM.Collect$$rtexit$$00000004  c_w.l(rtexit2.o)
    0x08000186   0x08000186   0x00000002   PAD
    0x08000188   0x08000188   0x00000040   Code   RO            4    .text               startup_stm32f103xb.o
    0x080001c8   0x080001c8   0x00000044   Code   RO         8256    .text               c_w.l(rt_memclr.o)
    0x0800020c   0x0800020c   0x0000004e   Code   RO         8258    .text               c_w.l(rt_memclr_w.o)
    0x0800025a   0x0800025a   0x00000006   Code   RO         8260    .text               c_w.l(heapauxi.o)
    0x08000260   0x08000260   0x0000004a   Code   RO         8311    .text               c_w.l(sys_stackheap_outer.o)
    0x080002aa   0x080002aa   0x00000012   Code   RO         8384    .text               c_w.l(exit.o)
    0x080002bc   0x080002bc   0x00000008   Code   RO         8459    .text               c_w.l(libspace.o)
    0x080002c4   0x080002c4   0x00000002   Code   RO         8462    .text               c_w.l(use_no_semi.o)
    0x080002c6   0x080002c6   0x00000000   Code   RO         8464    .text               c_w.l(indicate_semi.o)
    0x080002c6   0x080002c6   0x00000002   PAD
    0x080002c8   0x080002c8   0x0000000c   Code   RO         8520    .text               c_w.l(sys_exit.o)
    0x080002d4   0x080002d4   0x00000002   Code   RO          232    i.BusFault_Handler  stm32f1xx_it.o
    0x080002d6   0x080002d6   0x00000002   Code   RO          233    i.DebugMon_Handler  stm32f1xx_it.o
    0x080002d8   0x080002d8   0x00000004   Code   RO           13    i.Error_Handler     main.o
    0x080002dc   0x080002dc   0x00000024   Code   RO          696    i.HAL_Delay         stm32f1xx_hal.o
    0x08000300   0x08000300   0x000001e0   Code   RO         1004    i.HAL_GPIO_Init     stm32f1xx_hal_gpio.o
    0x080004e0   0x080004e0   0x0000000a   Code   RO         1008    i.HAL_GPIO_WritePin  stm32f1xx_hal_gpio.o
    0x080004ea   0x080004ea   0x00000002   PAD
    0x080004ec   0x080004ec   0x0000000c   Code   RO          700    i.HAL_GetTick       stm32f1xx_hal.o
    0x080004f8   0x080004f8   0x00000010   Code   RO          706    i.HAL_IncTick       stm32f1xx_hal.o
    0x08000508   0x08000508   0x00000024   Code   RO          707    i.HAL_Init          stm32f1xx_hal.o
    0x0800052c   0x0800052c   0x00000040   Code   RO          708    i.HAL_InitTick      stm32f1xx_hal.o
    0x0800056c   0x0800056c   0x0000003c   Code   RO          307    i.HAL_MspInit       stm32f1xx_hal_msp.o
    0x080005a8   0x080005a8   0x00000040   Code   RO         1170    i.HAL_NVIC_SetPriority  stm32f1xx_hal_cortex.o
    0x080005e8   0x080005e8   0x00000024   Code   RO         1171    i.HAL_NVIC_SetPriorityGrouping  stm32f1xx_hal_cortex.o
    0x0800060c   0x0800060c   0x0000012c   Code   RO          864    i.HAL_RCC_ClockConfig  stm32f1xx_hal_rcc.o
    0x08000738   0x08000738   0x0000006c   Code   RO          873    i.HAL_RCC_GetSysClockFreq  stm32f1xx_hal_rcc.o
    0x080007a4   0x080007a4   0x00000320   Code   RO          876    i.HAL_RCC_OscConfig  stm32f1xx_hal_rcc.o
    0x08000ac4   0x08000ac4   0x000000b2   Code   RO          378    i.HAL_SPI_Init      stm32f1xx_hal_spi.o
    0x08000b76   0x08000b76   0x00000002   PAD
    0x08000b78   0x08000b78   0x0000005c   Code   RO          191    i.HAL_SPI_MspInit   spi.o
    0x08000bd4   0x08000bd4   0x00000166   Code   RO          386    i.HAL_SPI_Transmit  stm32f1xx_hal_spi.o
    0x08000d3a   0x08000d3a   0x00000028   Code   RO         1175    i.HAL_SYSTICK_Config  stm32f1xx_hal_cortex.o
    0x08000d62   0x08000d62   0x00000002   Code   RO          234    i.HardFault_Handler  stm32f1xx_it.o
    0x08000d64   0x08000d64   0x000000a4   Code   RO          166    i.MX_GPIO_Init      gpio.o
    0x08000e08   0x08000e08   0x00000044   Code   RO          192    i.MX_SPI1_Init      spi.o
    0x08000e4c   0x08000e4c   0x00000002   Code   RO          235    i.MemManage_Handler  stm32f1xx_it.o
    0x08000e4e   0x08000e4e   0x00000002   Code   RO          236    i.NMI_Handler       stm32f1xx_it.o
    0x08000e50   0x08000e50   0x00000002   Code   RO          237    i.PendSV_Handler    stm32f1xx_it.o
    0x08000e52   0x08000e52   0x00000020   Code   RO          416    i.SPI_EndRxTxTransaction  stm32f1xx_hal_spi.o
    0x08000e72   0x08000e72   0x00000002   PAD
    0x08000e74   0x08000e74   0x000000b8   Code   RO          421    i.SPI_WaitFlagStateUntilTimeout  stm32f1xx_hal_spi.o
    0x08000f2c   0x08000f2c   0x00000002   Code   RO          238    i.SVC_Handler       stm32f1xx_it.o
    0x08000f2e   0x08000f2e   0x00000004   Code   RO          239    i.SysTick_Handler   stm32f1xx_it.o
    0x08000f32   0x08000f32   0x0000005e   Code   RO           14    i.SystemClock_Config  main.o
    0x08000f90   0x08000f90   0x00000002   Code   RO         1701    i.SystemInit        system_stm32f1xx.o
    0x08000f92   0x08000f92   0x00000002   Code   RO          240    i.UsageFault_Handler  stm32f1xx_it.o
    0x08000f94   0x08000f94   0x00000020   Code   RO         1177    i.__NVIC_SetPriority  stm32f1xx_hal_cortex.o
    0x08000fb4   0x08000fb4   0x00000010   Code   RO         1738    i.ledb_off          ledb_handle.o
    0x08000fc4   0x08000fc4   0x00000010   Code   RO         1739    i.ledb_on           ledb_handle.o
    0x08000fd4   0x08000fd4   0x00000020   Code   RO         1740    i.ledb_test         ledb_handle.o
    0x08000ff4   0x08000ff4   0x0000001a   Code   RO           15    i.main              main.o
    0x0800100e   0x0800100e   0x00000012   Code   RO         2537    i.u8g2_ClearBuffer  u8g2_buffer.o
    0x08001020   0x08001020   0x00000070   Code   RO         2740    i.u8g2_DrawGlyph    u8g2_font.o
    0x08001090   0x08001090   0x000000ac   Code   RO         4930    i.u8g2_DrawHVLine   u8g2_hvline.o
    0x0800113c   0x0800113c   0x00000094   Code   RO         2461    i.u8g2_DrawHXBMP    u8g2_bitmap.o
    0x080011d0   0x080011d0   0x00000010   Code   RO         2741    i.u8g2_DrawStr      u8g2_font.o
    0x080011e0   0x080011e0   0x0000004c   Code   RO         2464    i.u8g2_DrawXBMP     u8g2_bitmap.o
    0x0800122c   0x0800122c   0x00000030   Code   RO         4991    i.u8g2_IsIntersection  u8g2_intersection.o
    0x0800125c   0x0800125c   0x00000012   Code   RO         2540    i.u8g2_SendBuffer   u8g2_buffer.o
    0x0800126e   0x0800126e   0x00000020   Code   RO         2755    i.u8g2_SetFont      u8g2_font.o
    0x0800128e   0x0800128e   0x00000002   PAD
    0x08001290   0x08001290   0x0000000c   Code   RO         2758    i.u8g2_SetFontPosBaseline  u8g2_font.o
    0x0800129c   0x0800129c   0x0000001c   Code   RO         5179    i.u8g2_SetMaxClipWindow  u8g2_setup.o
    0x080012b8   0x080012b8   0x00000042   Code   RO         5180    i.u8g2_SetupBuffer  u8g2_setup.o
    0x080012fa   0x080012fa   0x00000002   PAD
    0x080012fc   0x080012fc   0x00000038   Code   RO         2726    i.u8g2_Setup_ssd1306_128x64_noname_f  u8g2_d_setup.o
    0x08001334   0x08001334   0x00000052   Code   RO         2765    i.u8g2_UpdateRefHeight  u8g2_font.o
    0x08001386   0x08001386   0x0000001c   Code   RO         2766    i.u8g2_add_vector_x  u8g2_font.o
    0x080013a2   0x080013a2   0x0000001c   Code   RO         2767    i.u8g2_add_vector_y  u8g2_font.o
    0x080013be   0x080013be   0x0000006e   Code   RO         5182    i.u8g2_apply_clip_window  u8g2_setup.o
    0x0800142c   0x0800142c   0x0000003c   Code   RO         4934    i.u8g2_clip_intersection2  u8g2_hvline.o
    0x08001468   0x08001468   0x00000012   Code   RO         4935    i.u8g2_draw_hv_line_2dir  u8g2_hvline.o
    0x0800147a   0x0800147a   0x0000000c   Code   RO         5184    i.u8g2_draw_l90_r0  u8g2_setup.o
    0x08001486   0x08001486   0x00000076   Code   RO         2768    i.u8g2_draw_string  u8g2_font.o
    0x080014fc   0x080014fc   0x00000004   Code   RO         2771    i.u8g2_font_calc_vref_font  u8g2_font.o
    0x08001500   0x08001500   0x00000014   Code   RO         2773    i.u8g2_font_decode_get_signed_bits  u8g2_font.o
    0x08001514   0x08001514   0x00000034   Code   RO         2774    i.u8g2_font_decode_get_unsigned_bits  u8g2_font.o
    0x08001548   0x08001548   0x00000114   Code   RO         2775    i.u8g2_font_decode_glyph  u8g2_font.o
    0x0800165c   0x0800165c   0x0000008c   Code   RO         2776    i.u8g2_font_decode_len  u8g2_font.o
    0x080016e8   0x080016e8   0x00000072   Code   RO         2777    i.u8g2_font_get_glyph_data  u8g2_font.o
    0x0800175a   0x0800175a   0x00000014   Code   RO         2778    i.u8g2_font_get_word  u8g2_font.o
    0x0800176e   0x0800176e   0x00000034   Code   RO         2779    i.u8g2_font_setup_decode  u8g2_font.o
    0x080017a2   0x080017a2   0x00000018   Code   RO         4992    i.u8g2_is_intersection_decision_tree  u8g2_intersection.o
    0x080017ba   0x080017ba   0x00000002   PAD
    0x080017bc   0x080017bc   0x00000090   Code   RO         5040    i.u8g2_ll_hvline_vertical_top_lsb  u8g2_ll_hvline.o
    0x0800184c   0x0800184c   0x0000000c   Code   RO         2713    i.u8g2_m_16_8_f     u8g2_d_memory.o
    0x08001858   0x08001858   0x0000006a   Code   RO         2780    i.u8g2_read_font_info  u8g2_font.o
    0x080018c2   0x080018c2   0x0000004e   Code   RO         2548    i.u8g2_send_buffer  u8g2_buffer.o
    0x08001910   0x08001910   0x00000046   Code   RO         5189    i.u8g2_update_dimension_common  u8g2_setup.o
    0x08001956   0x08001956   0x00000004   Code   RO         5190    i.u8g2_update_dimension_r0  u8g2_setup.o
    0x0800195a   0x0800195a   0x00000022   Code   RO         5194    i.u8g2_update_page_win_r0  u8g2_setup.o
    0x0800197c   0x0800197c   0x0000001e   Code   RO         7829    i.u8x8_DrawTile     u8x8_display.o
    0x0800199a   0x0800199a   0x00000010   Code   RO         7831    i.u8x8_InitDisplay  u8x8_display.o
    0x080019aa   0x080019aa   0x00000010   Code   RO         7833    i.u8x8_RefreshDisplay  u8x8_display.o
    0x080019ba   0x080019ba   0x00000010   Code   RO         7836    i.u8x8_SetPowerSave  u8x8_display.o
    0x080019ca   0x080019ca   0x00000022   Code   RO         8135    i.u8x8_Setup        u8x8_setup.o
    0x080019ec   0x080019ec   0x00000024   Code   RO         8136    i.u8x8_SetupDefaults  u8x8_setup.o
    0x08001a10   0x08001a10   0x00000010   Code   RO         7837    i.u8x8_SetupMemory  u8x8_display.o
    0x08001a20   0x08001a20   0x0000000e   Code   RO         5474    i.u8x8_ascii_next   u8x8_8x8.o
    0x08001a2e   0x08001a2e   0x0000000e   Code   RO         5600    i.u8x8_byte_SendByte  u8x8_byte.o
    0x08001a3c   0x08001a3c   0x00000010   Code   RO         5602    i.u8x8_byte_SetDC   u8x8_byte.o
    0x08001a4c   0x08001a4c   0x00000052   Code   RO         5715    i.u8x8_cad_001      u8x8_cad.o
    0x08001a9e   0x08001a9e   0x00000010   Code   RO         5719    i.u8x8_cad_EndTransfer  u8x8_cad.o
    0x08001aae   0x08001aae   0x00000010   Code   RO         5720    i.u8x8_cad_SendArg  u8x8_cad.o
    0x08001abe   0x08001abe   0x00000010   Code   RO         5721    i.u8x8_cad_SendCmd  u8x8_cad.o
    0x08001ace   0x08001ace   0x00000010   Code   RO         5722    i.u8x8_cad_SendData  u8x8_cad.o
    0x08001ade   0x08001ade   0x00000002   PAD
    0x08001ae0   0x08001ae0   0x00000068   Code   RO         5724    i.u8x8_cad_SendSequence  u8x8_cad.o
    0x08001b48   0x08001b48   0x00000010   Code   RO         5725    i.u8x8_cad_StartTransfer  u8x8_cad.o
    0x08001b58   0x08001b58   0x00000060   Code   RO         7838    i.u8x8_d_helper_display_init  u8x8_display.o
    0x08001bb8   0x08001bb8   0x0000000a   Code   RO         7839    i.u8x8_d_helper_display_setup_memory  u8x8_display.o
    0x08001bc2   0x08001bc2   0x00000002   PAD
    0x08001bc4   0x08001bc4   0x0000003c   Code   RO         6646    i.u8x8_d_ssd1306_128x64_noname  u8x8_d_ssd1306_128x64_noname.o
    0x08001c00   0x08001c00   0x000000c8   Code   RO         6648    i.u8x8_d_ssd1306_sh1106_generic  u8x8_d_ssd1306_128x64_noname.o
    0x08001cc8   0x08001cc8   0x00000004   Code   RO         8138    i.u8x8_dummy_cb     u8x8_setup.o
    0x08001ccc   0x08001ccc   0x0000000c   Code   RO         8057    i.u8x8_gpio_call    u8x8_gpio.o
    0x08001cd8   0x08001cd8   0x00000008   Code   RO         5482    i.u8x8_utf8_init    u8x8_8x8.o
    0x08001ce0   0x08001ce0   0x00000040   Code   RO         1773    i.userlib_u8g2_byte_4wire_hw_spi_callback  userlib_u8g2_handle.o
    0x08001d20   0x08001d20   0x0000002c   Code   RO         1774    i.userlib_u8g2_gpio_and_delay_callback  userlib_u8g2_handle.o
    0x08001d4c   0x08001d4c   0x0000003c   Code   RO         1775    i.userlib_u8g2_init  userlib_u8g2_handle.o
    0x08001d88   0x08001d88   0x00000104   Code   RO         1776    i.userlib_u8g2_nonos_handle  userlib_u8g2_handle.o
    0x08001e8c   0x08001e8c   0x00000010   Data   RO         1702    .constdata          system_stm32f1xx.o
    0x08001e9c   0x08001e9c   0x00000200   Data   RO         1842    .constdata          userlib_u8g2_img_wjy.o
    0x0800209c   0x0800209c   0x00000200   Data   RO         1843    .constdata          userlib_u8g2_img_wjy.o
    0x0800229c   0x0800229c   0x0000106e   Data   RO         3191    .constdata          u8g2_fonts.o
    0x0800330a   0x0800330a   0x00000002   PAD
    0x0800330c   0x0800330c   0x0000000c   Data   RO         5198    .constdata          u8g2_setup.o
    0x08003318   0x08003318   0x00000114   Data   RO         6649    .constdata          u8x8_d_ssd1306_128x64_noname.o
    0x0800342c   0x0800342c   0x00000020   Data   RO         8606    Region$$Table       anon$$obj.o


    Execution Region RW_IRAM1 (Exec base: 0x20000000, Load base: 0x0800344c, Size: 0x00000b60, Max: 0x00005000, ABSOLUTE)

    Exec Addr    Load Addr    Size         Type   Attr      Idx    E Section Name        Object

    0x20000000   0x0800344c   0x0000000c   Data   RW          714    .data               stm32f1xx_hal.o
    0x2000000c   0x08003458   0x00000004   Data   RW         1704    .data               system_stm32f1xx.o
    0x20000010        -       0x00000058   Zero   RW          193    .bss                spi.o
    0x20000068        -       0x00000094   Zero   RW         1777    .bss                userlib_u8g2_handle.o
    0x200000fc        -       0x00000400   Zero   RW         2714    .bss                u8g2_d_memory.o
    0x200004fc        -       0x00000060   Zero   RW         8460    .bss                c_w.l(libspace.o)
    0x2000055c   0x0800345c   0x00000004   PAD
    0x20000560        -       0x00000200   Zero   RW            2    HEAP                startup_stm32f103xb.o
    0x20000760        -       0x00000400   Zero   RW            1    STACK               startup_stm32f103xb.o


==============================================================================

Image component sizes


      Code (inc. data)   RO Data    RW Data    ZI Data      Debug   Object Name

       164         14          0          0          0        947   gpio.o
        64         10          0          0          0       1659   ledb_handle.o
       124          0          0          0          0     550724   main.o
       160         20          0          0         88       1665   spi.o
        64         26        236          0       1536        816   startup_stm32f103xb.o
       164         28          0         12          0       5953   stm32f1xx_hal.o
       172         14          0          0          0      28318   stm32f1xx_hal_cortex.o
       490         34          0          0          0       2908   stm32f1xx_hal_gpio.o
        60          8          0          0          0        882   stm32f1xx_hal_msp.o
      1208         76          0          0          0       4094   stm32f1xx_hal_rcc.o
       752          4          0          0          0       4430   stm32f1xx_hal_spi.o
        20          0          0          0          0       3938   stm32f1xx_it.o
         2          0         16          4          0       1139   system_stm32f1xx.o
       224          0          0          0          0       2085   u8g2_bitmap.o
       114          0          0          0          0       2479   u8g2_buffer.o
        12          4          0          0       1024        848   u8g2_d_memory.o
        56         14          0          0          0       1049   u8g2_d_setup.o
      1212         10          0          0          0      13588   u8g2_font.o
         0          0       4206          0          0     143089   u8g2_fonts.o
       250          0          0          0          0       2455   u8g2_hvline.o
        72          0          0          0          0       1891   u8g2_intersection.o
       144          0          0          0          0       1382   u8g2_ll_hvline.o
       324          0         12          0          0     144709   u8g2_setup.o
        22          0          0          0          0       1829   u8x8_8x8.o
        30          0          0          0          0       1123   u8x8_byte.o
       266          6          0          0          0       4853   u8x8_cad.o
       260         10        276          0          0       2915   u8x8_d_ssd1306_128x64_noname.o
       200          0          0          0          0       4318   u8x8_display.o
        12          0          0          0          0        581   u8x8_gpio.o
        74          4          0          0          0       1734   u8x8_setup.o
       428         48          0          0        148       2910   userlib_u8g2_handle.o
         0          0       1024          0          0        652   userlib_u8g2_img_wjy.o

    ----------------------------------------------------------------------
      7160        330       5804         16       2796     941963   Object Totals
         0          0         32          0          0          0   (incl. Generated)
        16          0          2          0          0          0   (incl. Padding)

    ----------------------------------------------------------------------

      Code (inc. data)   RO Data    RW Data    ZI Data      Debug   Library Member Name

         8          0          0          0          0         68   __main.o
         0          0          0          0          0          0   __rtentry.o
        12          0          0          0          0          0   __rtentry2.o
         6          0          0          0          0          0   __rtentry4.o
        52          8          0          0          0          0   __scatter.o
        26          0          0          0          0          0   __scatter_copy.o
        28          0          0          0          0          0   __scatter_zi.o
        18          0          0          0          0         80   exit.o
         6          0          0          0          0        152   heapauxi.o
         0          0          0          0          0          0   indicate_semi.o
         2          0          0          0          0          0   libinit.o
         2          0          0          0          0          0   libinit2.o
         2          0          0          0          0          0   libshutdown.o
         2          0          0          0          0          0   libshutdown2.o
         8          4          0          0         96         68   libspace.o
        68          0          0          0          0         68   rt_memclr.o
        78          0          0          0          0         80   rt_memclr_w.o
         2          0          0          0          0          0   rtexit.o
        10          0          0          0          0          0   rtexit2.o
        12          4          0          0          0         68   sys_exit.o
        74          0          0          0          0         80   sys_stackheap_outer.o
         2          0          0          0          0         68   use_no_semi.o

    ----------------------------------------------------------------------
       424         16          0          0        100        732   Library Totals
         6          0          0          0          4          0   (incl. Padding)

    ----------------------------------------------------------------------

      Code (inc. data)   RO Data    RW Data    ZI Data      Debug   Library Name

       418         16          0          0         96        732   c_w.l

    ----------------------------------------------------------------------
       424         16          0          0        100        732   Library Totals

    ----------------------------------------------------------------------

==============================================================================


      Code (inc. data)   RO Data    RW Data    ZI Data      Debug   

      7584        346       5804         16       2896     937387   Grand Totals
      7584        346       5804         16       2896     937387   ELF Image Totals
      7584        346       5804         16          0          0   ROM Totals

==============================================================================

    Total RO  Size (Code + RO Data)                13388 (  13.07kB)
    Total RW  Size (RW Data + ZI Data)              2912 (   2.84kB)
    Total ROM Size (Code + RO Data + RW Data)      13404 (  13.09kB)

==============================================================================

